{"abi":[{"type":"constructor","inputs":[{"name":"_bridge","type":"address","internalType":"address"},{"name":"_remoteToken","type":"address","internalType":"address"},{"name":"_name","type":"string","internalType":"string"},{"name":"_symbol","type":"string","internalType":"string"},{"name":"_decimals","type":"uint8","internalType":"uint8"}],"stateMutability":"nonpayable"},{"type":"function","name":"BRIDGE","inputs":[],"outputs":[{"name":"","type":"address","internalType":"address"}],"stateMutability":"view"},{"type":"function","name":"DOMAIN_SEPARATOR","inputs":[],"outputs":[{"name":"","type":"bytes32","internalType":"bytes32"}],"stateMutability":"view"},{"type":"function","name":"PERMIT2","inputs":[],"outputs":[{"name":"","type":"address","internalType":"address"}],"stateMutability":"pure"},{"type":"function","name":"REMOTE_TOKEN","inputs":[],"outputs":[{"name":"","type":"address","internalType":"address"}],"stateMutability":"view"},{"type":"function","name":"allowance","inputs":[{"name":"_owner","type":"address","internalType":"address"},{"name":"_spender","type":"address","internalType":"address"}],"outputs":[{"name":"","type":"uint256","internalType":"uint256"}],"stateMutability":"view"},{"type":"function","name":"approve","inputs":[{"name":"spender","type":"address","internalType":"address"},{"name":"value","type":"uint256","internalType":"uint256"}],"outputs":[{"name":"","type":"bool","internalType":"bool"}],"stateMutability":"nonpayable"},{"type":"function","name":"balanceOf","inputs":[{"name":"account","type":"address","internalType":"address"}],"outputs":[{"name":"","type":"uint256","internalType":"uint256"}],"stateMutability":"view"},{"type":"function","name":"bridge","inputs":[],"outputs":[{"name":"","type":"address","internalType":"address"}],"stateMutability":"view"},{"type":"function","name":"burn","inputs":[{"name":"_from","type":"address","internalType":"address"},{"name":"_amount","type":"uint256","internalType":"uint256"}],"outputs":[],"stateMutability":"nonpayable"},{"type":"function","name":"crosschainBurn","inputs":[{"name":"_from","type":"address","internalType":"address"},{"name":"_amount","type":"uint256","internalType":"uint256"}],"outputs":[],"stateMutability":"nonpayable"},{"type":"function","name":"crosschainMint","inputs":[{"name":"_to","type":"address","internalType":"address"},{"name":"_amount","type":"uint256","internalType":"uint256"}],"outputs":[],"stateMutability":"nonpayable"},{"type":"function","name":"decimals","inputs":[],"outputs":[{"name":"","type":"uint8","internalType":"uint8"}],"stateMutability":"view"},{"type":"function","name":"eip712Domain","inputs":[],"outputs":[{"name":"fields","type":"bytes1","internalType":"bytes1"},{"name":"name","type":"string","internalType":"string"},{"name":"version","type":"string","internalType":"string"},{"name":"chainId","type":"uint256","internalType":"uint256"},{"name":"verifyingContract","type":"address","internalType":"address"},{"name":"salt","type":"bytes32","internalType":"bytes32"},{"name":"extensions","type":"uint256[]","internalType":"uint256[]"}],"stateMutability":"view"},{"type":"function","name":"l1Token","inputs":[],"outputs":[{"name":"","type":"address","internalType":"address"}],"stateMutability":"view"},{"type":"function","name":"l2Bridge","inputs":[],"outputs":[{"name":"","type":"address","internalType":"address"}],"stateMutability":"view"},{"type":"function","name":"mint","inputs":[{"name":"_to","type":"address","internalType":"address"},{"name":"_amount","type":"uint256","internalType":"uint256"}],"outputs":[],"stateMutability":"nonpayable"},{"type":"function","name":"name","inputs":[],"outputs":[{"name":"","type":"string","internalType":"string"}],"stateMutability":"view"},{"type":"function","name":"nonces","inputs":[{"name":"owner","type":"address","internalType":"address"}],"outputs":[{"name":"","type":"uint256","internalType":"uint256"}],"stateMutability":"view"},{"type":"function","name":"permit","inputs":[{"name":"owner","type":"address","internalType":"address"},{"name":"spender","type":"address","internalType":"address"},{"name":"value","type":"uint256","internalType":"uint256"},{"name":"deadline","type":"uint256","internalType":"uint256"},{"name":"v","type":"uint8","internalType":"uint8"},{"name":"r","type":"bytes32","internalType":"bytes32"},{"name":"s","type":"bytes32","internalType":"bytes32"}],"outputs":[],"stateMutability":"nonpayable"},{"type":"function","name":"remoteToken","inputs":[],"outputs":[{"name":"","type":"address","internalType":"address"}],"stateMutability":"view"},{"type":"function","name":"supportsInterface","inputs":[{"name":"_interfaceId","type":"bytes4","internalType":"bytes4"}],"outputs":[{"name":"","type":"bool","internalType":"bool"}],"stateMutability":"pure"},{"type":"function","name":"symbol","inputs":[],"outputs":[{"name":"","type":"string","internalType":"string"}],"stateMutability":"view"},{"type":"function","name":"totalSupply","inputs":[],"outputs":[{"name":"","type":"uint256","internalType":"uint256"}],"stateMutability":"view"},{"type":"function","name":"transfer","inputs":[{"name":"to","type":"address","internalType":"address"},{"name":"value","type":"uint256","internalType":"uint256"}],"outputs":[{"name":"","type":"bool","internalType":"bool"}],"stateMutability":"nonpayable"},{"type":"function","name":"transferFrom","inputs":[{"name":"from","type":"address","internalType":"address"},{"name":"to","type":"address","internalType":"address"},{"name":"value","type":"uint256","internalType":"uint256"}],"outputs":[{"name":"","type":"bool","internalType":"bool"}],"stateMutability":"nonpayable"},{"type":"function","name":"version","inputs":[],"outputs":[{"name":"","type":"string","internalType":"string"}],"stateMutability":"view"},{"type":"event","name":"Approval","inputs":[{"name":"owner","type":"address","indexed":true,"internalType":"address"},{"name":"spender","type":"address","indexed":true,"internalType":"address"},{"name":"value","type":"uint256","indexed":false,"internalType":"uint256"}],"anonymous":false},{"type":"event","name":"Burn","inputs":[{"name":"account","type":"address","indexed":true,"internalType":"address"},{"name":"amount","type":"uint256","indexed":false,"internalType":"uint256"}],"anonymous":false},{"type":"event","name":"CrosschainBurn","inputs":[{"name":"from","type":"address","indexed":true,"internalType":"address"},{"name":"amount","type":"uint256","indexed":false,"internalType":"uint256"},{"name":"sender","type":"address","indexed":true,"internalType":"address"}],"anonymous":false},{"type":"event","name":"CrosschainMint","inputs":[{"name":"to","type":"address","indexed":true,"internalType":"address"},{"name":"amount","type":"uint256","indexed":false,"internalType":"uint256"},{"name":"sender","type":"address","indexed":true,"internalType":"address"}],"anonymous":false},{"type":"event","name":"EIP712DomainChanged","inputs":[],"anonymous":false},{"type":"event","name":"Mint","inputs":[{"name":"account","type":"address","indexed":true,"internalType":"address"},{"name":"amount","type":"uint256","indexed":false,"internalType":"uint256"}],"anonymous":false},{"type":"event","name":"Transfer","inputs":[{"name":"from","type":"address","indexed":true,"internalType":"address"},{"name":"to","type":"address","indexed":true,"internalType":"address"},{"name":"value","type":"uint256","indexed":false,"internalType":"uint256"}],"anonymous":false},{"type":"error","name":"ECDSAInvalidSignature","inputs":[]},{"type":"error","name":"ECDSAInvalidSignatureLength","inputs":[{"name":"length","type":"uint256","internalType":"uint256"}]},{"type":"error","name":"ECDSAInvalidSignatureS","inputs":[{"name":"s","type":"bytes32","internalType":"bytes32"}]},{"type":"error","name":"ERC20InsufficientAllowance","inputs":[{"name":"spender","type":"address","internalType":"address"},{"name":"allowance","type":"uint256","internalType":"uint256"},{"name":"needed","type":"uint256","internalType":"uint256"}]},{"type":"error","name":"ERC20InsufficientBalance","inputs":[{"name":"sender","type":"address","internalType":"address"},{"name":"balance","type":"uint256","internalType":"uint256"},{"name":"needed","type":"uint256","internalType":"uint256"}]},{"type":"error","name":"ERC20InvalidApprover","inputs":[{"name":"approver","type":"address","internalType":"address"}]},{"type":"error","name":"ERC20InvalidReceiver","inputs":[{"name":"receiver","type":"address","internalType":"address"}]},{"type":"error","name":"ERC20InvalidSender","inputs":[{"name":"sender","type":"address","internalType":"address"}]},{"type":"error","name":"ERC20InvalidSpender","inputs":[{"name":"spender","type":"address","internalType":"address"}]},{"type":"error","name":"ERC2612ExpiredSignature","inputs":[{"name":"deadline","type":"uint256","internalType":"uint256"}]},{"type":"error","name":"ERC2612InvalidSigner","inputs":[{"name":"signer","type":"address","internalType":"address"},{"name":"owner","type":"address","internalType":"address"}]},{"type":"error","name":"InvalidAccountNonce","inputs":[{"name":"account","type":"address","internalType":"address"},{"name":"currentNonce","type":"uint256","internalType":"uint256"}]},{"type":"error","name":"InvalidShortString","inputs":[]},{"type":"error","name":"StringTooLong","inputs":[{"name":"str","type":"string","internalType":"string"}]}],"bytecode":{"object":"0x6101c0604052348015610010575f5ffd5b50604051613137380380613137833981810160405281019061003291906104b8565b848484848482806040518060400160405280600181526020017f3100000000000000000000000000000000000000000000000000000000000000815250858581600390816100809190610777565b5080600490816100909190610777565b5050506100a76005836101c660201b90919060201c565b61012081815250506100c36006826101c660201b90919060201c565b6101408181525050818051906020012060e08181525050808051906020012061010081815250504660a0818152505061010061021360201b60201c565b608081815250503073ffffffffffffffffffffffffffffffffffffffff1660c08173ffffffffffffffffffffffffffffffffffffffff16815250505050508373ffffffffffffffffffffffffffffffffffffffff166101608173ffffffffffffffffffffffffffffffffffffffff16815250508473ffffffffffffffffffffffffffffffffffffffff166101808173ffffffffffffffffffffffffffffffffffffffff16815250508060ff166101a08160ff1681525050505050505050505050506109c8565b5f6020835110156101e7576101e08361026d60201b60201c565b905061020d565b826101f7836102d260201b60201c565b5f0190816102059190610777565b5060ff5f1b90505b92915050565b5f7f8b73c3c69bb8fe3d512ecc4cf759cc79239f7b179b0ffacaa9a75d522b39400f60e05161010051463060405160200161025295949392919061087c565b60405160208183030381529060405280519060200120905090565b5f5f829050601f815111156102b957826040517f305a27a90000000000000000000000000000000000000000000000000000000081526004016102b09190610915565b60405180910390fd5b8051816102c590610962565b5f1c175f1b915050919050565b5f819050919050565b5f604051905090565b5f5ffd5b5f5ffd5b5f73ffffffffffffffffffffffffffffffffffffffff82169050919050565b5f610315826102ec565b9050919050565b6103258161030b565b811461032f575f5ffd5b50565b5f815190506103408161031c565b92915050565b5f5ffd5b5f5ffd5b5f601f19601f8301169050919050565b7f4e487b71000000000000000000000000000000000000000000000000000000005f52604160045260245ffd5b6103948261034e565b810181811067ffffffffffffffff821117156103b3576103b261035e565b5b80604052505050565b5f6103c56102db565b90506103d1828261038b565b919050565b5f67ffffffffffffffff8211156103f0576103ef61035e565b5b6103f98261034e565b9050602081019050919050565b8281835e5f83830152505050565b5f610426610421846103d6565b6103bc565b9050828152602081018484840111156104425761044161034a565b5b61044d848285610406565b509392505050565b5f82601f83011261046957610468610346565b5b8151610479848260208601610414565b91505092915050565b5f60ff82169050919050565b61049781610482565b81146104a1575f5ffd5b50565b5f815190506104b28161048e565b92915050565b5f5f5f5f5f60a086880312156104d1576104d06102e4565b5b5f6104de88828901610332565b95505060206104ef88828901610332565b945050604086015167ffffffffffffffff8111156105105761050f6102e8565b5b61051c88828901610455565b935050606086015167ffffffffffffffff81111561053d5761053c6102e8565b5b61054988828901610455565b925050608061055a888289016104a4565b9150509295509295909350565b5f81519050919050565b7f4e487b71000000000000000000000000000000000000000000000000000000005f52602260045260245ffd5b5f60028204905060018216806105b557607f821691505b6020821081036105c8576105c7610571565b5b50919050565b5f819050815f5260205f209050919050565b5f6020601f8301049050919050565b5f82821b905092915050565b5f6008830261062a7fffffffffffffffffffffffffffffffffffffffffffffffffffffffffffffffff826105ef565b61063486836105ef565b95508019841693508086168417925050509392505050565b5f819050919050565b5f819050919050565b5f61067861067361066e8461064c565b610655565b61064c565b9050919050565b5f819050919050565b6106918361065e565b6106a561069d8261067f565b8484546105fb565b825550505050565b5f5f905090565b6106bc6106ad565b6106c7818484610688565b505050565b5b818110156106ea576106df5f826106b4565b6001810190506106cd565b5050565b601f82111561072f57610700816105ce565b610709846105e0565b81016020851015610718578190505b61072c610724856105e0565b8301826106cc565b50505b505050565b5f82821c905092915050565b5f61074f5f1984600802610734565b1980831691505092915050565b5f6107678383610740565b9150826002028217905092915050565b61078082610567565b67ffffffffffffffff8111156107995761079861035e565b5b6107a3825461059e565b6107ae8282856106ee565b5f60209050601f8311600181146107df575f84156107cd578287015190505b6107d7858261075c565b86555061083e565b601f1984166107ed866105ce565b5f5b82811015610814578489015182556001820191506020850194506020810190506107ef565b86831015610831578489015161082d601f891682610740565b8355505b6001600288020188555050505b505050505050565b5f819050919050565b61085881610846565b82525050565b6108678161064c565b82525050565b6108768161030b565b82525050565b5f60a08201905061088f5f83018861084f565b61089c602083018761084f565b6108a9604083018661084f565b6108b6606083018561085e565b6108c3608083018461086d565b9695505050505050565b5f82825260208201905092915050565b5f6108e782610567565b6108f181856108cd565b9350610901818560208601610406565b61090a8161034e565b840191505092915050565b5f6020820190508181035f83015261092d81846108dd565b905092915050565b5f81519050919050565b5f819050602082019050919050565b5f6109598251610846565b80915050919050565b5f61096c82610935565b826109768461093f565b90506109818161094e565b925060208210156109c1576109bc7fffffffffffffffffffffffffffffffffffffffffffffffffffffffffffffffff836020036008026105ef565b831692505b5050919050565b60805160a05160c05160e05161010051610120516101405161016051610180516101a0516126d6610a615f395f61094901525f818161097d01528181610c4101528181610d4e01528181610f7e0152610fa401525f818161065101528181610d750152610ee101525f61139f01525f61136401525f61191a01525f6118f901525f61126201525f6112b801525f6112e101526126d65ff3fe608060405234801561000f575f5ffd5b506004361061018c575f3560e01c806370a08231116100dc578063ae1f6aaf11610095578063d6c0b2c41161006f578063d6c0b2c41461048c578063dd62ed3e146104aa578063e78cea92146104da578063ee9a31a2146104f85761018c565b8063ae1f6aaf14610434578063c01e1bd614610452578063d505accf146104705761018c565b806370a08231146103465780637ecebe001461037657806384b0196e146103a657806395d89b41146103ca5780639dc29fac146103e8578063a9059cbb146104045761018c565b806323b872dd116101495780633644e515116101235780633644e515146102d057806340c10f19146102ee57806354fd4d501461030a5780636afdd850146103285761018c565b806323b872dd146102665780632b8c49e314610296578063313ce567146102b25761018c565b806301ffc9a714610190578063033964be146101c057806306fdde03146101de578063095ea7b3146101fc57806318160ddd1461022c57806318bf50771461024a575b5f5ffd5b6101aa60048036038101906101a59190611db9565b610516565b6040516101b79190611dfe565b60405180910390f35b6101c861064f565b6040516101d59190611e56565b60405180910390f35b6101e6610673565b6040516101f39190611edf565b60405180910390f35b61021660048036038101906102119190611f5c565b610703565b6040516102239190611dfe565b60405180910390f35b610234610725565b6040516102419190611fa9565b60405180910390f35b610264600480360381019061025f9190611f5c565b61072e565b005b610280600480360381019061027b9190611fc2565b610823565b60405161028d9190611dfe565b60405180910390f35b6102b060048036038101906102ab9190611f5c565b610851565b005b6102ba610946565b6040516102c7919061202d565b60405180910390f35b6102d861096d565b6040516102e5919061205e565b60405180910390f35b61030860048036038101906103039190611f5c565b61097b565b005b610312610a65565b60405161031f9190611edf565b60405180910390f35b610330610a9e565b60405161033d9190611e56565b60405180910390f35b610360600480360381019061035b9190612077565b610ab4565b60405161036d9190611fa9565b60405180910390f35b610390600480360381019061038b9190612077565b610af9565b60405161039d9190611fa9565b60405180910390f35b6103ae610b0a565b6040516103c19796959493929190612193565b60405180910390f35b6103d2610baf565b6040516103df9190611edf565b60405180910390f35b61040260048036038101906103fd9190611f5c565b610c3f565b005b61041e60048036038101906104199190611f5c565b610d29565b60405161042b9190611dfe565b60405180910390f35b61043c610d4b565b6040516104499190611e56565b60405180910390f35b61045a610d72565b6040516104679190611e56565b60405180910390f35b61048a60048036038101906104859190612269565b610d99565b005b610494610ede565b6040516104a19190611e56565b60405180910390f35b6104c460048036038101906104bf9190612306565b610f05565b6040516104d19190611fa9565b60405180910390f35b6104e2610f7b565b6040516104ef9190611e56565b60405180910390f35b610500610fa2565b60405161050d9190611e56565b60405180910390f35b5f7f33331994000000000000000000000000000000000000000000000000000000007bffffffffffffffffffffffffffffffffffffffffffffffffffffffff1916827bffffffffffffffffffffffffffffffffffffffffffffffffffffffff191614806105e057507f36372b07000000000000000000000000000000000000000000000000000000007bffffffffffffffffffffffffffffffffffffffffffffffffffffffff1916827bffffffffffffffffffffffffffffffffffffffffffffffffffffffff1916145b8061064857507fec4fc8e3000000000000000000000000000000000000000000000000000000007bffffffffffffffffffffffffffffffffffffffffffffffffffffffff1916827bffffffffffffffffffffffffffffffffffffffffffffffffffffffff1916145b9050919050565b7f000000000000000000000000000000000000000000000000000000000000000081565b60606003805461068290612371565b80601f01602080910402602001604051908101604052809291908181526020018280546106ae90612371565b80156106f95780601f106106d0576101008083540402835291602001916106f9565b820191905f5260205f20905b8154815290600101906020018083116106dc57829003601f168201915b5050505050905090565b5f5f61070d610fc6565b905061071a818585610fcd565b600191505092915050565b5f600254905090565b73420000000000000000000000000000000000002873ffffffffffffffffffffffffffffffffffffffff163373ffffffffffffffffffffffffffffffffffffffff16146107b0576040517f08c379a00000000000000000000000000000000000000000000000000000000081526004016107a7906123eb565b60405180910390fd5b6107ba8282610fdf565b3373ffffffffffffffffffffffffffffffffffffffff168273ffffffffffffffffffffffffffffffffffffffff167fde22baff038e3a3e08407cbdf617deed74e869a7ba517df611e33131c6e6ea04836040516108179190611fa9565b60405180910390a35050565b5f5f61082d610fc6565b905061083a85828561105e565b6108458585856110f0565b60019150509392505050565b73420000000000000000000000000000000000002873ffffffffffffffffffffffffffffffffffffffff163373ffffffffffffffffffffffffffffffffffffffff16146108d3576040517f08c379a00000000000000000000000000000000000000000000000000000000081526004016108ca906123eb565b60405180910390fd5b6108dd82826111e0565b3373ffffffffffffffffffffffffffffffffffffffff168273ffffffffffffffffffffffffffffffffffffffff167fb90795a66650155983e242cac3e1ac1a4dc26f8ed2987f3ce416a34e00111fd48360405161093a9190611fa9565b60405180910390a35050565b5f7f0000000000000000000000000000000000000000000000000000000000000000905090565b5f61097661125f565b905090565b7f000000000000000000000000000000000000000000000000000000000000000073ffffffffffffffffffffffffffffffffffffffff163373ffffffffffffffffffffffffffffffffffffffff1614610a09576040517f08c379a0000000000000000000000000000000000000000000000000000000008152600401610a0090612479565b60405180910390fd5b610a138282610fdf565b8173ffffffffffffffffffffffffffffffffffffffff167f0f6798a560793a54c3bcfe86a93cde1e73087d944c0ea20544137d412139688582604051610a599190611fa9565b60405180910390a25050565b6040518060400160405280600c81526020017f312e342e302d626574612e35000000000000000000000000000000000000000081525081565b5f6e22d473030f116ddee9f6b43ac78ba3905090565b5f5f5f8373ffffffffffffffffffffffffffffffffffffffff1673ffffffffffffffffffffffffffffffffffffffff1681526020019081526020015f20549050919050565b5f610b0382611315565b9050919050565b5f6060805f5f5f6060610b1b61135b565b610b23611396565b46305f5f1b5f67ffffffffffffffff811115610b4257610b41612497565b5b604051908082528060200260200182016040528015610b705781602001602082028036833780820191505090505b507f0f00000000000000000000000000000000000000000000000000000000000000959493929190965096509650965096509650965090919293949596565b606060048054610bbe90612371565b80601f0160208091040260200160405190810160405280929190818152602001828054610bea90612371565b8015610c355780601f10610c0c57610100808354040283529160200191610c35565b820191905f5260205f20905b815481529060010190602001808311610c1857829003601f168201915b5050505050905090565b7f000000000000000000000000000000000000000000000000000000000000000073ffffffffffffffffffffffffffffffffffffffff163373ffffffffffffffffffffffffffffffffffffffff1614610ccd576040517f08c379a0000000000000000000000000000000000000000000000000000000008152600401610cc490612479565b60405180910390fd5b610cd782826111e0565b8173ffffffffffffffffffffffffffffffffffffffff167fcc16f5dbb4873280815c1ee09dbd06736cffcc184412cf7a71a0fdb75d397ca582604051610d1d9190611fa9565b60405180910390a25050565b5f5f610d33610fc6565b9050610d408185856110f0565b600191505092915050565b5f7f0000000000000000000000000000000000000000000000000000000000000000905090565b5f7f0000000000000000000000000000000000000000000000000000000000000000905090565b83421115610dde57836040517f62791302000000000000000000000000000000000000000000000000000000008152600401610dd59190611fa9565b60405180910390fd5b5f7f6e71edae12b1b97f4d1f60370fef10105fa2faae0126114a169c64845d6126c9888888610e0c8c6113d1565b89604051602001610e22969594939291906124c4565b6040516020818303038152906040528051906020012090505f610e4482611424565b90505f610e538287878761143d565b90508973ffffffffffffffffffffffffffffffffffffffff168173ffffffffffffffffffffffffffffffffffffffff1614610ec757808a6040517f4b800e46000000000000000000000000000000000000000000000000000000008152600401610ebe929190612523565b60405180910390fd5b610ed28a8a8a610fcd565b50505050505050505050565b5f7f0000000000000000000000000000000000000000000000000000000000000000905090565b5f610f0e610a9e565b73ffffffffffffffffffffffffffffffffffffffff168273ffffffffffffffffffffffffffffffffffffffff1603610f68577fffffffffffffffffffffffffffffffffffffffffffffffffffffffffffffffff9050610f75565b610f72838361146b565b90505b92915050565b5f7f0000000000000000000000000000000000000000000000000000000000000000905090565b7f000000000000000000000000000000000000000000000000000000000000000081565b5f33905090565b610fda83838360016114ed565b505050565b5f73ffffffffffffffffffffffffffffffffffffffff168273ffffffffffffffffffffffffffffffffffffffff160361104f575f6040517fec442f050000000000000000000000000000000000000000000000000000000081526004016110469190611e56565b60405180910390fd5b61105a5f83836116bc565b5050565b5f6110698484610f05565b90507fffffffffffffffffffffffffffffffffffffffffffffffffffffffffffffffff81146110ea57818110156110db578281836040517ffb8f41b20000000000000000000000000000000000000000000000000000000081526004016110d29392919061254a565b60405180910390fd5b6110e984848484035f6114ed565b5b50505050565b5f73ffffffffffffffffffffffffffffffffffffffff168373ffffffffffffffffffffffffffffffffffffffff1603611160575f6040517f96c6fd1e0000000000000000000000000000000000000000000000000000000081526004016111579190611e56565b60405180910390fd5b5f73ffffffffffffffffffffffffffffffffffffffff168273ffffffffffffffffffffffffffffffffffffffff16036111d0575f6040517fec442f050000000000000000000000000000000000000000000000000000000081526004016111c79190611e56565b60405180910390fd5b6111db8383836116bc565b505050565b5f73ffffffffffffffffffffffffffffffffffffffff168273ffffffffffffffffffffffffffffffffffffffff1603611250575f6040517f96c6fd1e0000000000000000000000000000000000000000000000000000000081526004016112479190611e56565b60405180910390fd5b61125b825f836116bc565b5050565b5f7f000000000000000000000000000000000000000000000000000000000000000073ffffffffffffffffffffffffffffffffffffffff163073ffffffffffffffffffffffffffffffffffffffff161480156112da57507f000000000000000000000000000000000000000000000000000000000000000046145b15611307577f00000000000000000000000000000000000000000000000000000000000000009050611312565b61130f6118d5565b90505b90565b5f60075f8373ffffffffffffffffffffffffffffffffffffffff1673ffffffffffffffffffffffffffffffffffffffff1681526020019081526020015f20549050919050565b606061139160057f000000000000000000000000000000000000000000000000000000000000000061196a90919063ffffffff16565b905090565b60606113cc60067f000000000000000000000000000000000000000000000000000000000000000061196a90919063ffffffff16565b905090565b5f60075f8373ffffffffffffffffffffffffffffffffffffffff1673ffffffffffffffffffffffffffffffffffffffff1681526020019081526020015f205f815480929190600101919050559050919050565b5f61143661143061125f565b83611a17565b9050919050565b5f5f5f5f61144d88888888611a57565b92509250925061145d8282611b3e565b829350505050949350505050565b5f60015f8473ffffffffffffffffffffffffffffffffffffffff1673ffffffffffffffffffffffffffffffffffffffff1681526020019081526020015f205f8373ffffffffffffffffffffffffffffffffffffffff1673ffffffffffffffffffffffffffffffffffffffff1681526020019081526020015f2054905092915050565b5f73ffffffffffffffffffffffffffffffffffffffff168473ffffffffffffffffffffffffffffffffffffffff160361155d575f6040517fe602df050000000000000000000000000000000000000000000000000000000081526004016115549190611e56565b60405180910390fd5b5f73ffffffffffffffffffffffffffffffffffffffff168373ffffffffffffffffffffffffffffffffffffffff16036115cd575f6040517f94280d620000000000000000000000000000000000000000000000000000000081526004016115c49190611e56565b60405180910390fd5b8160015f8673ffffffffffffffffffffffffffffffffffffffff1673ffffffffffffffffffffffffffffffffffffffff1681526020019081526020015f205f8573ffffffffffffffffffffffffffffffffffffffff1673ffffffffffffffffffffffffffffffffffffffff1681526020019081526020015f208190555080156116b6578273ffffffffffffffffffffffffffffffffffffffff168473ffffffffffffffffffffffffffffffffffffffff167f8c5be1e5ebec7d5bd14f71427d1e84f3dd0314c0f7b2291e5b200ac8c7c3b925846040516116ad9190611fa9565b60405180910390a35b50505050565b5f73ffffffffffffffffffffffffffffffffffffffff168373ffffffffffffffffffffffffffffffffffffffff160361170c578060025f82825461170091906125ac565b925050819055506117da565b5f5f5f8573ffffffffffffffffffffffffffffffffffffffff1673ffffffffffffffffffffffffffffffffffffffff1681526020019081526020015f2054905081811015611795578381836040517fe450d38c00000000000000000000000000000000000000000000000000000000815260040161178c9392919061254a565b60405180910390fd5b8181035f5f8673ffffffffffffffffffffffffffffffffffffffff1673ffffffffffffffffffffffffffffffffffffffff1681526020019081526020015f2081905550505b5f73ffffffffffffffffffffffffffffffffffffffff168273ffffffffffffffffffffffffffffffffffffffff1603611821578060025f828254039250508190555061186b565b805f5f8473ffffffffffffffffffffffffffffffffffffffff1673ffffffffffffffffffffffffffffffffffffffff1681526020019081526020015f205f82825401925050819055505b8173ffffffffffffffffffffffffffffffffffffffff168373ffffffffffffffffffffffffffffffffffffffff167fddf252ad1be2c89b69c2b068fc378daa952ba7f163c4a11628f55a4df523b3ef836040516118c89190611fa9565b60405180910390a3505050565b5f7f8b73c3c69bb8fe3d512ecc4cf759cc79239f7b179b0ffacaa9a75d522b39400f7f00000000000000000000000000000000000000000000000000000000000000007f0000000000000000000000000000000000000000000000000000000000000000463060405160200161194f9594939291906125df565b60405160208183030381529060405280519060200120905090565b606060ff5f1b83146119865761197f83611ca0565b9050611a11565b81805461199290612371565b80601f01602080910402602001604051908101604052809291908181526020018280546119be90612371565b8015611a095780601f106119e057610100808354040283529160200191611a09565b820191905f5260205f20905b8154815290600101906020018083116119ec57829003601f168201915b505050505090505b92915050565b5f6040517f190100000000000000000000000000000000000000000000000000000000000081528360028201528260228201526042812091505092915050565b5f5f5f7f7fffffffffffffffffffffffffffffff5d576e7357a4501ddfe92f46681b20a0845f1c1115611a93575f600385925092509250611b34565b5f6001888888886040515f8152602001604052604051611ab69493929190612630565b6020604051602081039080840390855afa158015611ad6573d5f5f3e3d5ffd5b5050506020604051035190505f73ffffffffffffffffffffffffffffffffffffffff168173ffffffffffffffffffffffffffffffffffffffff1603611b27575f60015f5f1b93509350935050611b34565b805f5f5f1b935093509350505b9450945094915050565b5f6003811115611b5157611b50612673565b5b826003811115611b6457611b63612673565b5b0315611c9c5760016003811115611b7e57611b7d612673565b5b826003811115611b9157611b90612673565b5b03611bc8576040517ff645eedf00000000000000000000000000000000000000000000000000000000815260040160405180910390fd5b60026003811115611bdc57611bdb612673565b5b826003811115611bef57611bee612673565b5b03611c3357805f1c6040517ffce698f7000000000000000000000000000000000000000000000000000000008152600401611c2a9190611fa9565b60405180910390fd5b600380811115611c4657611c45612673565b5b826003811115611c5957611c58612673565b5b03611c9b57806040517fd78bce0c000000000000000000000000000000000000000000000000000000008152600401611c92919061205e565b60405180910390fd5b5b5050565b60605f611cac83611d12565b90505f602067ffffffffffffffff811115611cca57611cc9612497565b5b6040519080825280601f01601f191660200182016040528015611cfc5781602001600182028036833780820191505090505b5090508181528360208201528092505050919050565b5f5f60ff835f1c169050601f811115611d57576040517fb3512b0c00000000000000000000000000000000000000000000000000000000815260040160405180910390fd5b80915050919050565b5f5ffd5b5f7fffffffff0000000000000000000000000000000000000000000000000000000082169050919050565b611d9881611d64565b8114611da2575f5ffd5b50565b5f81359050611db381611d8f565b92915050565b5f60208284031215611dce57611dcd611d60565b5b5f611ddb84828501611da5565b91505092915050565b5f8115159050919050565b611df881611de4565b82525050565b5f602082019050611e115f830184611def565b92915050565b5f73ffffffffffffffffffffffffffffffffffffffff82169050919050565b5f611e4082611e17565b9050919050565b611e5081611e36565b82525050565b5f602082019050611e695f830184611e47565b92915050565b5f81519050919050565b5f82825260208201905092915050565b8281835e5f83830152505050565b5f601f19601f8301169050919050565b5f611eb182611e6f565b611ebb8185611e79565b9350611ecb818560208601611e89565b611ed481611e97565b840191505092915050565b5f6020820190508181035f830152611ef78184611ea7565b905092915050565b611f0881611e36565b8114611f12575f5ffd5b50565b5f81359050611f2381611eff565b92915050565b5f819050919050565b611f3b81611f29565b8114611f45575f5ffd5b50565b5f81359050611f5681611f32565b92915050565b5f5f60408385031215611f7257611f71611d60565b5b5f611f7f85828601611f15565b9250506020611f9085828601611f48565b9150509250929050565b611fa381611f29565b82525050565b5f602082019050611fbc5f830184611f9a565b92915050565b5f5f5f60608486031215611fd957611fd8611d60565b5b5f611fe686828701611f15565b9350506020611ff786828701611f15565b925050604061200886828701611f48565b9150509250925092565b5f60ff82169050919050565b61202781612012565b82525050565b5f6020820190506120405f83018461201e565b92915050565b5f819050919050565b61205881612046565b82525050565b5f6020820190506120715f83018461204f565b92915050565b5f6020828403121561208c5761208b611d60565b5b5f61209984828501611f15565b91505092915050565b5f7fff0000000000000000000000000000000000000000000000000000000000000082169050919050565b6120d6816120a2565b82525050565b5f81519050919050565b5f82825260208201905092915050565b5f819050602082019050919050565b61210e81611f29565b82525050565b5f61211f8383612105565b60208301905092915050565b5f602082019050919050565b5f612141826120dc565b61214b81856120e6565b9350612156836120f6565b805f5b8381101561218657815161216d8882612114565b97506121788361212b565b925050600181019050612159565b5085935050505092915050565b5f60e0820190506121a65f83018a6120cd565b81810360208301526121b88189611ea7565b905081810360408301526121cc8188611ea7565b90506121db6060830187611f9a565b6121e86080830186611e47565b6121f560a083018561204f565b81810360c08301526122078184612137565b905098975050505050505050565b61221e81612012565b8114612228575f5ffd5b50565b5f8135905061223981612215565b92915050565b61224881612046565b8114612252575f5ffd5b50565b5f813590506122638161223f565b92915050565b5f5f5f5f5f5f5f60e0888a03121561228457612283611d60565b5b5f6122918a828b01611f15565b97505060206122a28a828b01611f15565b96505060406122b38a828b01611f48565b95505060606122c48a828b01611f48565b94505060806122d58a828b0161222b565b93505060a06122e68a828b01612255565b92505060c06122f78a828b01612255565b91505092959891949750929550565b5f5f6040838503121561231c5761231b611d60565b5b5f61232985828601611f15565b925050602061233a85828601611f15565b9150509250929050565b7f4e487b71000000000000000000000000000000000000000000000000000000005f52602260045260245ffd5b5f600282049050600182168061238857607f821691505b60208210810361239b5761239a612344565b5b50919050565b7f556e617574686f72697a656400000000000000000000000000000000000000005f82015250565b5f6123d5600c83611e79565b91506123e0826123a1565b602082019050919050565b5f6020820190508181035f830152612402816123c9565b9050919050565b7f4f7074696d69736d4d696e7461626c6545524332303a206f6e6c7920627269645f8201527f67652063616e206d696e7420616e64206275726e000000000000000000000000602082015250565b5f612463603483611e79565b915061246e82612409565b604082019050919050565b5f6020820190508181035f83015261249081612457565b9050919050565b7f4e487b71000000000000000000000000000000000000000000000000000000005f52604160045260245ffd5b5f60c0820190506124d75f83018961204f565b6124e46020830188611e47565b6124f16040830187611e47565b6124fe6060830186611f9a565b61250b6080830185611f9a565b61251860a0830184611f9a565b979650505050505050565b5f6040820190506125365f830185611e47565b6125436020830184611e47565b9392505050565b5f60608201905061255d5f830186611e47565b61256a6020830185611f9a565b6125776040830184611f9a565b949350505050565b7f4e487b71000000000000000000000000000000000000000000000000000000005f52601160045260245ffd5b5f6125b682611f29565b91506125c183611f29565b92508282019050808211156125d9576125d861257f565b5b92915050565b5f60a0820190506125f25f83018861204f565b6125ff602083018761204f565b61260c604083018661204f565b6126196060830185611f9a565b6126266080830184611e47565b9695505050505050565b5f6080820190506126435f83018761204f565b612650602083018661201e565b61265d604083018561204f565b61266a606083018461204f565b95945050505050565b7f4e487b71000000000000000000000000000000000000000000000000000000005f52602160045260245ffdfea2646970667358221220ad210e23f487468da4b82ec4f17c619ea06f662f1f337b7b02c609af83dc278764736f6c634300081c0033","linkReferences":{}},"methodIdentifiers":{"BRIDGE()":"ee9a31a2","DOMAIN_SEPARATOR()":"3644e515","PERMIT2()":"6afdd850","REMOTE_TOKEN()":"033964be","allowance(address,address)":"dd62ed3e","approve(address,uint256)":"095ea7b3","balanceOf(address)":"70a08231","bridge()":"e78cea92","burn(address,uint256)":"9dc29fac","crosschainBurn(address,uint256)":"2b8c49e3","crosschainMint(address,uint256)":"18bf5077","decimals()":"313ce567","eip712Domain()":"84b0196e","l1Token()":"c01e1bd6","l2Bridge()":"ae1f6aaf","mint(address,uint256)":"40c10f19","name()":"06fdde03","nonces(address)":"7ecebe00","permit(address,address,uint256,uint256,uint8,bytes32,bytes32)":"d505accf","remoteToken()":"d6c0b2c4","supportsInterface(bytes4)":"01ffc9a7","symbol()":"95d89b41","totalSupply()":"18160ddd","transfer(address,uint256)":"a9059cbb","transferFrom(address,address,uint256)":"23b872dd","version()":"54fd4d50"},"id":0}