{"abi":[{"type":"constructor","inputs":[{"name":"_bridge","type":"address","internalType":"address"},{"name":"_remoteToken","type":"address","internalType":"address"}],"stateMutability":"nonpayable"},{"type":"function","name":"BRIDGE","inputs":[],"outputs":[{"name":"","type":"address","internalType":"address"}],"stateMutability":"view"},{"type":"function","name":"REMOTE_TOKEN","inputs":[],"outputs":[{"name":"","type":"address","internalType":"address"}],"stateMutability":"view"},{"type":"function","name":"allowance","inputs":[{"name":"owner","type":"address","internalType":"address"},{"name":"spender","type":"address","internalType":"address"}],"outputs":[{"name":"","type":"uint256","internalType":"uint256"}],"stateMutability":"view"},{"type":"function","name":"approve","inputs":[{"name":"spender","type":"address","internalType":"address"},{"name":"amount","type":"uint256","internalType":"uint256"}],"outputs":[{"name":"","type":"bool","internalType":"bool"}],"stateMutability":"nonpayable"},{"type":"function","name":"balanceOf","inputs":[{"name":"account","type":"address","internalType":"address"}],"outputs":[{"name":"","type":"uint256","internalType":"uint256"}],"stateMutability":"view"},{"type":"function","name":"bridge","inputs":[],"outputs":[{"name":"","type":"address","internalType":"address"}],"stateMutability":"view"},{"type":"function","name":"burn","inputs":[{"name":"_from","type":"address","internalType":"address"},{"name":"_amount","type":"uint256","internalType":"uint256"}],"outputs":[],"stateMutability":"nonpayable"},{"type":"function","name":"crosschainBurn","inputs":[{"name":"_from","type":"address","internalType":"address"},{"name":"_amount","type":"uint256","internalType":"uint256"}],"outputs":[],"stateMutability":"nonpayable"},{"type":"function","name":"crosschainMint","inputs":[{"name":"_to","type":"address","internalType":"address"},{"name":"_amount","type":"uint256","internalType":"uint256"}],"outputs":[],"stateMutability":"nonpayable"},{"type":"function","name":"decimals","inputs":[],"outputs":[{"name":"","type":"uint8","internalType":"uint8"}],"stateMutability":"view"},{"type":"function","name":"decreaseAllowance","inputs":[{"name":"spender","type":"address","internalType":"address"},{"name":"subtractedValue","type":"uint256","internalType":"uint256"}],"outputs":[{"name":"","type":"bool","internalType":"bool"}],"stateMutability":"nonpayable"},{"type":"function","name":"increaseAllowance","inputs":[{"name":"spender","type":"address","internalType":"address"},{"name":"addedValue","type":"uint256","internalType":"uint256"}],"outputs":[{"name":"","type":"bool","internalType":"bool"}],"stateMutability":"nonpayable"},{"type":"function","name":"l1Token","inputs":[],"outputs":[{"name":"","type":"address","internalType":"address"}],"stateMutability":"view"},{"type":"function","name":"l2Bridge","inputs":[],"outputs":[{"name":"","type":"address","internalType":"address"}],"stateMutability":"view"},{"type":"function","name":"mint","inputs":[{"name":"_to","type":"address","internalType":"address"},{"name":"_amount","type":"uint256","internalType":"uint256"}],"outputs":[],"stateMutability":"nonpayable"},{"type":"function","name":"name","inputs":[],"outputs":[{"name":"","type":"string","internalType":"string"}],"stateMutability":"view"},{"type":"function","name":"remoteToken","inputs":[],"outputs":[{"name":"","type":"address","internalType":"address"}],"stateMutability":"view"},{"type":"function","name":"supportsInterface","inputs":[{"name":"_interfaceId","type":"bytes4","internalType":"bytes4"}],"outputs":[{"name":"","type":"bool","internalType":"bool"}],"stateMutability":"pure"},{"type":"function","name":"symbol","inputs":[],"outputs":[{"name":"","type":"string","internalType":"string"}],"stateMutability":"view"},{"type":"function","name":"totalSupply","inputs":[],"outputs":[{"name":"","type":"uint256","internalType":"uint256"}],"stateMutability":"view"},{"type":"function","name":"transfer","inputs":[{"name":"to","type":"address","internalType":"address"},{"name":"amount","type":"uint256","internalType":"uint256"}],"outputs":[{"name":"","type":"bool","internalType":"bool"}],"stateMutability":"nonpayable"},{"type":"function","name":"transferFrom","inputs":[{"name":"from","type":"address","internalType":"address"},{"name":"to","type":"address","internalType":"address"},{"name":"amount","type":"uint256","internalType":"uint256"}],"outputs":[{"name":"","type":"bool","internalType":"bool"}],"stateMutability":"nonpayable"},{"type":"function","name":"version","inputs":[],"outputs":[{"name":"","type":"string","internalType":"string"}],"stateMutability":"view"},{"type":"event","name":"Approval","inputs":[{"name":"owner","type":"address","indexed":true,"internalType":"address"},{"name":"spender","type":"address","indexed":true,"internalType":"address"},{"name":"value","type":"uint256","indexed":false,"internalType":"uint256"}],"anonymous":false},{"type":"event","name":"Burn","inputs":[{"name":"account","type":"address","indexed":true,"internalType":"address"},{"name":"amount","type":"uint256","indexed":false,"internalType":"uint256"}],"anonymous":false},{"type":"event","name":"CrosschainBurn","inputs":[{"name":"from","type":"address","indexed":true,"internalType":"address"},{"name":"amount","type":"uint256","indexed":false,"internalType":"uint256"},{"name":"sender","type":"address","indexed":true,"internalType":"address"}],"anonymous":false},{"type":"event","name":"CrosschainMint","inputs":[{"name":"to","type":"address","indexed":true,"internalType":"address"},{"name":"amount","type":"uint256","indexed":false,"internalType":"uint256"},{"name":"sender","type":"address","indexed":true,"internalType":"address"}],"anonymous":false},{"type":"event","name":"Mint","inputs":[{"name":"account","type":"address","indexed":true,"internalType":"address"},{"name":"amount","type":"uint256","indexed":false,"internalType":"uint256"}],"anonymous":false},{"type":"event","name":"Transfer","inputs":[{"name":"from","type":"address","indexed":true,"internalType":"address"},{"name":"to","type":"address","indexed":true,"internalType":"address"},{"name":"value","type":"uint256","indexed":false,"internalType":"uint256"}],"anonymous":false}],"bytecode":{"object":"0x61012060405234801561001157600080fd5b5060405161151a38038061151a833981016040819052610030916100d7565b818160405180604001604052806004815260200163424c455360e01b81525060405180604001604052806004815260200163424c455360e01b81525060016000808484816003908161008291906101a9565b50600461008f82826101a9565b50505060809290925260a05260c05250506001600160a01b0390811660e0521661010052506102679050565b80516001600160a01b03811681146100d257600080fd5b919050565b600080604083850312156100ea57600080fd5b6100f3836100bb565b9150610101602084016100bb565b90509250929050565b634e487b7160e01b600052604160045260246000fd5b600181811c9082168061013457607f821691505b60208210810361015457634e487b7160e01b600052602260045260246000fd5b50919050565b601f8211156101a457806000526020600020601f840160051c810160208510156101815750805b601f840160051c820191505b818110156101a1576000815560010161018d565b50505b505050565b81516001600160401b038111156101c2576101c261010a565b6101d6816101d08454610120565b8461015a565b6020601f82116001811461020a57600083156101f25750848201515b600019600385901b1c1916600184901b1784556101a1565b600084815260208120601f198516915b8281101561023a578785015182556020948501946001909201910161021a565b50848210156102585786840151600019600387901b60f8161c191681555b50505050600190811b01905550565b60805160a05160c05160e051610100516112536102c7600039600081816102d70152818161033901528181610603015261074e01526000818161017f01526102fd015260006106ea015260006106c10152600061069801526112536000f3fe608060405234801561001057600080fd5b506004361061014d5760003560e01c806354fd4d50116100c3578063ae1f6aaf1161007c578063ae1f6aaf146102d5578063c01e1bd6146102fb578063d6c0b2c4146102fb578063dd62ed3e14610321578063e78cea92146102d5578063ee9a31a21461033457600080fd5b806354fd4d501461026357806370a082311461026b57806395d89b41146102945780639dc29fac1461029c578063a457c2d7146102af578063a9059cbb146102c257600080fd5b806318bf50771161011557806318bf5077146101f357806323b872dd146102085780632b8c49e31461021b578063313ce5671461022e578063395093511461023d57806340c10f191461025057600080fd5b806301ffc9a714610152578063033964be1461017a57806306fdde03146101b9578063095ea7b3146101ce57806318160ddd146101e1575b600080fd5b610165610160366004610f18565b61035b565b60405190151581526020015b60405180910390f35b6101a17f000000000000000000000000000000000000000000000000000000000000000081565b6040516001600160a01b039091168152602001610171565b6101c16103e3565b6040516101719190610f6d565b6101656101dc366004610fbc565b610475565b6002545b604051908152602001610171565b610206610201366004610fbc565b61048d565b005b610165610216366004610fe6565b610526565b610206610229366004610fbc565b61054a565b60405160128152602001610171565b61016561024b366004610fbc565b6105d6565b61020661025e366004610fbc565b6105f8565b6101c1610691565b6101e5610279366004611023565b6001600160a01b031660009081526020819052604090205490565b6101c1610734565b6102066102aa366004610fbc565b610743565b6101656102bd366004610fbc565b6107d0565b6101656102d0366004610fbc565b61084b565b7f00000000000000000000000000000000000000000000000000000000000000006101a1565b7f00000000000000000000000000000000000000000000000000000000000000006101a1565b6101e561032f36600461103e565b610859565b6101a17f000000000000000000000000000000000000000000000000000000000000000081565b60006001600160e01b03198216630cccc66560e21b148061038c57506001600160e01b031982166301ffc9a760e01b145b806103a757506001600160e01b031982166336372b0760e01b145b806103c257506001600160e01b03198216631d1d8b6360e01b145b806103dd57506001600160e01b0319821663ec4fc8e360e01b145b92915050565b6060600380546103f290611071565b80601f016020809104026020016040519081016040528092919081815260200182805461041e90611071565b801561046b5780601f106104405761010080835404028352916020019161046b565b820191906000526020600020905b81548152906001019060200180831161044e57829003601f168201915b5050505050905090565b600033610483818585610884565b5060019392505050565b336028602160991b01146104d75760405162461bcd60e51b815260206004820152600c60248201526b155b985d5d1a1bdc9a5e995960a21b60448201526064015b60405180910390fd5b6104e182826109a9565b60405181815233906001600160a01b038416907fde22baff038e3a3e08407cbdf617deed74e869a7ba517df611e33131c6e6ea04906020015b60405180910390a35050565b600033610534858285610a81565b61053f858585610afb565b506001949350505050565b336028602160991b011461058f5760405162461bcd60e51b815260206004820152600c60248201526b155b985d5d1a1bdc9a5e995960a21b60448201526064016104ce565b6105998282610cc9565b60405181815233906001600160a01b038416907fb90795a66650155983e242cac3e1ac1a4dc26f8ed2987f3ce416a34e00111fd49060200161051a565b6000336104838185856105e98383610859565b6105f391906110c1565b610884565b336001600160a01b037f000000000000000000000000000000000000000000000000000000000000000016146106405760405162461bcd60e51b81526004016104ce906110d4565b61064a82826109a9565b816001600160a01b03167f0f6798a560793a54c3bcfe86a93cde1e73087d944c0ea20544137d41213968858260405161068591815260200190565b60405180910390a25050565b60606106bc7f0000000000000000000000000000000000000000000000000000000000000000610e0f565b6106e57f0000000000000000000000000000000000000000000000000000000000000000610e0f565b61070e7f0000000000000000000000000000000000000000000000000000000000000000610e0f565b60405160200161072093929190611128565b604051602081830303815290604052905090565b6060600480546103f290611071565b336001600160a01b037f0000000000000000000000000000000000000000000000000000000000000000161461078b5760405162461bcd60e51b81526004016104ce906110d4565b6107958282610cc9565b816001600160a01b03167fcc16f5dbb4873280815c1ee09dbd06736cffcc184412cf7a71a0fdb75d397ca58260405161068591815260200190565b600033816107de8286610859565b90508381101561083e5760405162461bcd60e51b815260206004820152602560248201527f45524332303a2064656372656173656420616c6c6f77616e63652062656c6f77604482015264207a65726f60d81b60648201526084016104ce565b61053f8286868403610884565b600033610483818585610afb565b6001600160a01b03918216600090815260016020908152604080832093909416825291909152205490565b6001600160a01b0383166108e65760405162461bcd60e51b8152602060048201526024808201527f45524332303a20617070726f76652066726f6d20746865207a65726f206164646044820152637265737360e01b60648201526084016104ce565b6001600160a01b0382166109475760405162461bcd60e51b815260206004820152602260248201527f45524332303a20617070726f766520746f20746865207a65726f206164647265604482015261737360f01b60648201526084016104ce565b6001600160a01b0383811660008181526001602090815260408083209487168084529482529182902085905590518481527f8c5be1e5ebec7d5bd14f71427d1e84f3dd0314c0f7b2291e5b200ac8c7c3b92591015b60405180910390a3505050565b6001600160a01b0382166109ff5760405162461bcd60e51b815260206004820152601f60248201527f45524332303a206d696e7420746f20746865207a65726f20616464726573730060448201526064016104ce565b8060026000828254610a1191906110c1565b90915550506001600160a01b03821660009081526020819052604081208054839290610a3e9084906110c1565b90915550506040518181526001600160a01b038316906000907fddf252ad1be2c89b69c2b068fc378daa952ba7f163c4a11628f55a4df523b3ef9060200161051a565b6000610a8d8484610859565b90506000198114610af55781811015610ae85760405162461bcd60e51b815260206004820152601d60248201527f45524332303a20696e73756666696369656e7420616c6c6f77616e636500000060448201526064016104ce565b610af58484848403610884565b50505050565b6001600160a01b038316610b5f5760405162461bcd60e51b815260206004820152602560248201527f45524332303a207472616e736665722066726f6d20746865207a65726f206164604482015264647265737360d81b60648201526084016104ce565b6001600160a01b038216610bc15760405162461bcd60e51b815260206004820152602360248201527f45524332303a207472616e7366657220746f20746865207a65726f206164647260448201526265737360e81b60648201526084016104ce565b6001600160a01b03831660009081526020819052604090205481811015610c395760405162461bcd60e51b815260206004820152602660248201527f45524332303a207472616e7366657220616d6f756e7420657863656564732062604482015265616c616e636560d01b60648201526084016104ce565b6001600160a01b03808516600090815260208190526040808220858503905591851681529081208054849290610c709084906110c1565b92505081905550826001600160a01b0316846001600160a01b03167fddf252ad1be2c89b69c2b068fc378daa952ba7f163c4a11628f55a4df523b3ef84604051610cbc91815260200190565b60405180910390a3610af5565b6001600160a01b038216610d295760405162461bcd60e51b815260206004820152602160248201527f45524332303a206275726e2066726f6d20746865207a65726f206164647265736044820152607360f81b60648201526084016104ce565b6001600160a01b03821660009081526020819052604090205481811015610d9d5760405162461bcd60e51b815260206004820152602260248201527f45524332303a206275726e20616d6f756e7420657863656564732062616c616e604482015261636560f01b60648201526084016104ce565b6001600160a01b0383166000908152602081905260408120838303905560028054849290610dcc908490611187565b90915550506040518281526000906001600160a01b038516907fddf252ad1be2c89b69c2b068fc378daa952ba7f163c4a11628f55a4df523b3ef9060200161099c565b606081600003610e365750506040805180820190915260018152600360fc1b602082015290565b8160005b8115610e605780610e4a8161119a565b9150610e599050600a836111c9565b9150610e3a565b60008167ffffffffffffffff811115610e7b57610e7b6111dd565b6040519080825280601f01601f191660200182016040528015610ea5576020820181803683370190505b5090505b8415610f1057610eba600183611187565b9150610ec7600a866111f3565b610ed29060306110c1565b60f81b818381518110610ee757610ee7611207565b60200101906001600160f81b031916908160001a905350610f09600a866111c9565b9450610ea9565b949350505050565b600060208284031215610f2a57600080fd5b81356001600160e01b031981168114610f4257600080fd5b9392505050565b60005b83811015610f64578181015183820152602001610f4c565b50506000910152565b6020815260008251806020840152610f8c816040850160208701610f49565b601f01601f19169190910160400192915050565b80356001600160a01b0381168114610fb757600080fd5b919050565b60008060408385031215610fcf57600080fd5b610fd883610fa0565b946020939093013593505050565b600080600060608486031215610ffb57600080fd5b61100484610fa0565b925061101260208501610fa0565b929592945050506040919091013590565b60006020828403121561103557600080fd5b610f4282610fa0565b6000806040838503121561105157600080fd5b61105a83610fa0565b915061106860208401610fa0565b90509250929050565b600181811c9082168061108557607f821691505b6020821081036110a557634e487b7160e01b600052602260045260246000fd5b50919050565b634e487b7160e01b600052601160045260246000fd5b808201808211156103dd576103dd6110ab565b60208082526034908201527f4f7074696d69736d4d696e7461626c6545524332303a206f6e6c79206272696460408201527333b29031b0b71036b4b73a1030b73210313ab93760611b606082015260800190565b6000845161113a818460208901610f49565b601760f91b9083019081528451611158816001840160208901610f49565b601760f91b60019290910191820152835161117a816002840160208801610f49565b0160020195945050505050565b818103818111156103dd576103dd6110ab565b6000600182016111ac576111ac6110ab565b5060010190565b634e487b7160e01b600052601260045260246000fd5b6000826111d8576111d86111b3565b500490565b634e487b7160e01b600052604160045260246000fd5b600082611202576112026111b3565b500690565b634e487b7160e01b600052603260045260246000fdfea26469706673582212205d5ffa721b2478b51a82280a40944e6ca6d6a0d87e530f0df6f477c80b13379e64736f6c634300081c0033","linkReferences":{}},"methodIdentifiers":{"BRIDGE()":"ee9a31a2","REMOTE_TOKEN()":"033964be","allowance(address,address)":"dd62ed3e","approve(address,uint256)":"095ea7b3","balanceOf(address)":"70a08231","bridge()":"e78cea92","burn(address,uint256)":"9dc29fac","crosschainBurn(address,uint256)":"2b8c49e3","crosschainMint(address,uint256)":"18bf5077","decimals()":"313ce567","decreaseAllowance(address,uint256)":"a457c2d7","increaseAllowance(address,uint256)":"39509351","l1Token()":"c01e1bd6","l2Bridge()":"ae1f6aaf","mint(address,uint256)":"40c10f19","name()":"06fdde03","remoteToken()":"d6c0b2c4","supportsInterface(bytes4)":"01ffc9a7","symbol()":"95d89b41","totalSupply()":"18160ddd","transfer(address,uint256)":"a9059cbb","transferFrom(address,address,uint256)":"23b872dd","version()":"54fd4d50"},"id":0}