{"abi":[{"type":"constructor","inputs":[{"name":"_daoMultisig","type":"address","internalType":"address"},{"name":"_factory","type":"address","internalType":"address"},{"name":"_router","type":"address","internalType":"address"},{"name":"_lockupLinear","type":"address","internalType":"address"},{"name":"_weth","type":"address","internalType":"address"}],"stateMutability":"nonpayable"},{"type":"function","name":"PHI","inputs":[],"outputs":[{"name":"","type":"uint256","internalType":"uint256"}],"stateMutability":"view"},{"type":"function","name":"SCALE","inputs":[],"outputs":[{"name":"","type":"uint256","internalType":"uint256"}],"stateMutability":"view"},{"type":"function","name":"blesToBlesed","inputs":[{"name":"","type":"address","internalType":"address"}],"outputs":[{"name":"","type":"address","internalType":"address"}],"stateMutability":"view"},{"type":"function","name":"blesedToBles","inputs":[{"name":"","type":"address","internalType":"address"}],"outputs":[{"name":"","type":"address","internalType":"address"}],"stateMutability":"view"},{"type":"function","name":"daoMultisig","inputs":[],"outputs":[{"name":"","type":"address","internalType":"address"}],"stateMutability":"view"},{"type":"function","name":"factory","inputs":[],"outputs":[{"name":"","type":"address","internalType":"contract IUniswapV2Factory"}],"stateMutability":"view"},{"type":"function","name":"link","inputs":[],"outputs":[{"name":"","type":"string","internalType":"string"}],"stateMutability":"view"},{"type":"function","name":"lockupLinear","inputs":[],"outputs":[{"name":"","type":"address","internalType":"contract ISablierV2LockupLinear"}],"stateMutability":"view"},{"type":"function","name":"refill","inputs":[{"name":"amount","type":"uint256","internalType":"uint256"}],"outputs":[],"stateMutability":"nonpayable"},{"type":"function","name":"router","inputs":[],"outputs":[{"name":"","type":"address","internalType":"contract IUniswapV2Router02"}],"stateMutability":"view"},{"type":"function","name":"spark","inputs":[{"name":"_division","type":"uint256","internalType":"uint256"},{"name":"_referral","type":"address","internalType":"address"}],"outputs":[],"stateMutability":"payable"},{"type":"function","name":"weth","inputs":[],"outputs":[{"name":"","type":"address","internalType":"contract IERC20"}],"stateMutability":"view"},{"type":"event","name":"Blesed","inputs":[{"name":"blesed","type":"address","indexed":true,"internalType":"address"},{"name":"blesToken","type":"address","indexed":true,"internalType":"address"},{"name":"blesAmount","type":"uint256","indexed":false,"internalType":"uint256"},{"name":"torchAmount","type":"uint256","indexed":false,"internalType":"uint256"},{"name":"liquidity","type":"uint256","indexed":false,"internalType":"uint256"},{"name":"streamId","type":"uint256","indexed":false,"internalType":"uint256"},{"name":"referral","type":"address","indexed":false,"internalType":"address"},{"name":"referralAmount","type":"uint256","indexed":false,"internalType":"uint256"}],"anonymous":false},{"type":"event","name":"Refilled","inputs":[{"name":"refiller","type":"address","indexed":true,"internalType":"address"},{"name":"amount","type":"uint256","indexed":false,"internalType":"uint256"},{"name":"ethAmount","type":"uint256","indexed":false,"internalType":"uint256"}],"anonymous":false},{"type":"error","name":"BlesedAlready","inputs":[]},{"type":"error","name":"DivisionOutOfRange","inputs":[]},{"type":"error","name":"EthAmountError","inputs":[]},{"type":"error","name":"EthAmountOutOfRange","inputs":[]},{"type":"error","name":"Locked","inputs":[]},{"type":"error","name":"NotRefiller","inputs":[]},{"type":"error","name":"TransferFailed","inputs":[]},{"type":"error","name":"ZeroAddress","inputs":[]},{"type":"error","name":"ZeroAmount","inputs":[]}],"bytecode":{"object":"0x6080604052600160055534801561001557600080fd5b506040516129773803806129778339810160408190526100349161011f565b6000604051610042906100f6565b604051809103906000f08015801561005e573d6000803e3d6000fd5b5030600081815260066020908152604080832080546001600160a01b03199081166001600160a01b0397881690811790925590845260079092528220805482169093179092556002805483169984169990991790985587548116968216969096179096555060018054851693861693909317909255600480548416918516919091179055600380549092169216919091179055610184565b610aee80611e8983390190565b80516001600160a01b038116811461011a57600080fd5b919050565b600080600080600060a0868803121561013757600080fd5b61014086610103565b945061014e60208701610103565b935061015c60408701610103565b925061016a60608701610103565b915061017860808701610103565b90509295509295909350565b611cf6806101936000396000f3fe6080604052600436106100a75760003560e01c806373a4c0d61161006457806373a4c0d6146101ce578063c0d0aa6914610204578063c45a015514610224578063ca9d07ba14610244578063eced552614610264578063f887ea401461028757600080fd5b80630d0e3d11146100ac5780631c4695f4146100ff57806337fb15c0146101475780633fc8cef31461016757806366afe4b31461018757806368e368ea146101b9575b600080fd5b3480156100b857600080fd5b506100e26100c7366004610ed9565b6007602052600090815260409020546001600160a01b031681565b6040516001600160a01b0390911681526020015b60405180910390f35b34801561010b57600080fd5b5061013a6040518060400160405280600f81526020016e426c657365642e6574682e6c696d6f60881b81525081565b6040516100f69190610efd565b34801561015357600080fd5b506004546100e2906001600160a01b031681565b34801561017357600080fd5b506003546100e2906001600160a01b031681565b34801561019357600080fd5b506101ab6f01379f3c1cd9c1b7c1617173ef15e5e681565b6040519081526020016100f6565b6101cc6101c7366004610f4b565b6102a7565b005b3480156101da57600080fd5b506100e26101e9366004610ed9565b6006602052600090815260409020546001600160a01b031681565b34801561021057600080fd5b506002546100e2906001600160a01b031681565b34801561023057600080fd5b506000546100e2906001600160a01b031681565b34801561025057600080fd5b506101cc61025f366004610f7b565b610d99565b34801561027057600080fd5b506101ab6ec097ce7bc90715b34b9f100000000081565b34801561029357600080fd5b506001546100e2906001600160a01b031681565b6005546001146102ca576040516303cb96db60e21b815260040160405180910390fd5b6002600555336000908152600660205260409020546001600160a01b031615610306576040516332d3f39d60e21b815260040160405180910390fd5b61037c60405180610180016040528060006001600160a01b031681526020016000815260200160008152602001600081526020016000815260200160008152602001600081526020016000815260200160008152602001600081526020016000815260200160006001600160a01b031681525090565b61014081018381526001600160a01b038084166101608401523060009081526006602052604090205416825251600b116103c957604051632b137fd160e21b815260040160405180910390fd5b6230d400341115806103e557506906c6b935b8bbd40000003410155b1561040357604051634ba2c1a760e01b815260040160405180910390fd5b60003360405161041290610eb4565b6001600160a01b039091168152602001604051809103906000f08015801561043e573d6000803e3d6000fd5b5033600081815260066020908152604080832080546001600160a01b0387166001600160a01b03199182168117909255908452600783529083208054909116909317909255670de0b6b3a7640000918501919091526101408401519192500361059d57602082015160405163a9059cbb60e01b815233600482015260248101919091526001600160a01b0382169063a9059cbb906044016020604051808303816000875af11580156104f4573d6000803e3d6000fd5b505050506040513d601f19601f820116820180604052508101906105189190610f94565b5033600081815260066020908152604080832054868301516101608801518351918252938101859052918201849052606082018490526001600160a01b03928316608083015260a0820193909352911691907e96f680fe632bbd21a9a2a622b4f232c480d207a348a7cb9ec68432a7cd3ee79060c00160405180910390a35050610d90565b6105ff604080516101008101825260008082526020808301829052828401829052606083018290526080830182905260a083018290528351808501855282815280820183905260c084015283518085019094528184528301529060e082015290565b6230d400836101400151346106149190610fcc565b61061e9190610fe9565b6040840152612710610631346051610fcc565b61063b9190610fe9565b610100840181905261064d903461100b565b606084015260005b8361014001518110156106a9576f01379f3c1cd9c1b7c1617173ef15e5e66ec097ce7bc90715b34b9f100000000085602001516106929190610fcc565b61069c9190610fe9565b6020850152600101610655565b5060208301516106c190670de0b6b3a764000061100b565b60a0840181905260015460405163095ea7b360e01b81526001600160a01b039182166004820152602481019290925283169063095ea7b3906044016020604051808303816000875af115801561071b573d6000803e3d6000fd5b505050506040513d601f19601f8201168201806040525081019061073f9190610f94565b5060015460608401805133600090815260066020526040908190205460a08801519351915163f305d71960e01b81526001600160a01b03918216600482015260248101859052604481019490945260648401919091523060848401524260a48401529092169163f305d7199160c40160606040518083038185885af11580156107cc573d6000803e3d6000fd5b50505050506040513d601f19601f820116820180604052508101906107f1919061101e565b608086015250506000805460035460405163e6a4390560e01b81526001600160a01b038681166004830152918216602482015291169063e6a4390590604401602060405180830381865afa15801561084d573d6000803e3d6000fd5b505050506040513d601f19601f82011682018060405250810190610871919061104c565b338084526020808501919091526080808701516001600160801b03166040808701919091526001600160a01b0384166060870152600091860182905260a086018290528051808201825282815263337f98008185015260c087015280518082019091528181529293509082015260e083015260048054608086015160405163095ea7b360e01b81526001600160a01b0392831693810193909352602483015282169063095ea7b3906044016020604051808303816000875af115801561093b573d6000803e3d6000fd5b505050506040513d601f19601f8201168201806040525081019061095f9190610f94565b5060048054604051632ac59f3360e21b81526001600160a01b039091169163ab167ccc9161098f91869101611069565b6020604051808303816000875af11580156109ae573d6000803e3d6000fd5b505050506040513d601f19601f820116820180604052508101906109d29190611120565b610120850152602084015160405163a9059cbb60e01b815233600482015260248101919091526001600160a01b0384169063a9059cbb906044016020604051808303816000875af1158015610a2b573d6000803e3d6000fd5b505050506040513d601f19601f82011682018060405250810190610a4f9190610f94565b506f01379f3c1cd9c1b7c1617173ef15e5e66ec097ce7bc90715b34b9f10000000008560400151610a809190610fcc565b610a8a9190610fe9565b60c085018190526f01379f3c1cd9c1b7c1617173ef15e5e690610abd906ec097ce7bc90715b34b9f100000000090610fcc565b610ac79190610fe9565b60e0850181905260c08501516040860151610ae29190611139565b610aec9190611139565b84516040516370a0823160e01b81523060048201526001600160a01b03909116906370a0823190602401602060405180830381865afa158015610b33573d6000803e3d6000fd5b505050506040513d601f19601f82011682018060405250810190610b579190611120565b10610cdd578351604080860151905163a9059cbb60e01b815233600482015260248101919091526001600160a01b039091169063a9059cbb906044016020604051808303816000875af1158015610bb2573d6000803e3d6000fd5b505050506040513d601f19601f82011682018060405250810190610bd69190610f94565b50835160025460c086015160405163a9059cbb60e01b81526001600160a01b039283166004820152602481019190915291169063a9059cbb906044016020604051808303816000875af1158015610c31573d6000803e3d6000fd5b505050506040513d601f19601f82011682018060405250810190610c559190610f94565b50835161016085015160e086015160405163a9059cbb60e01b81526001600160a01b039283166004820152602481019190915291169063a9059cbb906044016020604051808303816000875af1158015610cb3573d6000803e3d6000fd5b505050506040513d601f19601f82011682018060405250810190610cd79190610f94565b50610ce5565b600060408501525b3360008181526006602090815260409182902054908701518783015160808901516101208a01516101608b015160e08c015196516001600160a01b039690961697967e96f680fe632bbd21a9a2a622b4f232c480d207a348a7cb9ec68432a7cd3ee796610d83969594939291909586526020860194909452604085019290925260608401526001600160a01b0316608083015260a082015260c00190565b60405180910390a3505050505b50506001600555565b80600003610dba57604051631f2a200560e01b815260040160405180910390fd5b306000818152600660205260408082205490516323b872dd60e01b815233600482015260248101939093526044830184905290916001600160a01b03909116906323b872dd906064016020604051808303816000875af1158015610e22573d6000803e3d6000fd5b505050506040513d601f19601f82011682018060405250810190610e469190610f94565b905080610e66576040516312171d8360e31b815260040160405180910390fd5b336108fc670de0b6b3a7640000610e7d8547610fcc565b610e879190610fe9565b6040518115909202916000818181858888f19350505050158015610eaf573d6000803e3d6000fd5b505050565b610b748061114d83390190565b6001600160a01b0381168114610ed657600080fd5b50565b600060208284031215610eeb57600080fd5b8135610ef681610ec1565b9392505050565b602081526000825180602084015260005b81811015610f2b5760208186018101516040868401015201610f0e565b506000604082850101526040601f19601f83011684010191505092915050565b60008060408385031215610f5e57600080fd5b823591506020830135610f7081610ec1565b809150509250929050565b600060208284031215610f8d57600080fd5b5035919050565b600060208284031215610fa657600080fd5b81518015158114610ef657600080fd5b634e487b7160e01b600052601160045260246000fd5b8082028115828204841417610fe357610fe3610fb6565b92915050565b60008261100657634e487b7160e01b600052601260045260246000fd5b500490565b81810381811115610fe357610fe3610fb6565b60008060006060848603121561103357600080fd5b5050815160208301516040909301519094929350919050565b60006020828403121561105e57600080fd5b8151610ef681610ec1565b81516001600160a01b0390811682526020808401518216908301526040808401516001600160801b031690830152606080840151918216908301526101408201905060808301516110be608084018215159052565b5060a08301516110d260a084018215159052565b5060c08301516110f960c0840182805164ffffffffff908116835260209182015116910152565b5060e0929092015180516001600160a01b0316610100830152602001516101209091015290565b60006020828403121561113257600080fd5b5051919050565b80820180821115610fe357610fe3610fb656fe608060405234801561001057600080fd5b50604051610b74380380610b7483398101604081905261002f9161023c565b60405180604001604052806004815260200163626c657360e01b81525060405180604001604052806004815260200163424c455360e01b8152508160039081610078919061030b565b506004610085828261030b565b5050506100a033670de0b6b3a76400006100d360201b60201c565b60058054336001600160a01b031991821617909155600680549091166001600160a01b03929092169190911790556103f0565b6001600160a01b0382166101025760405163ec442f0560e01b8152600060048201526024015b60405180910390fd5b61010e60008383610112565b5050565b6001600160a01b03831661013d57806002600082825461013291906103c9565b909155506101af9050565b6001600160a01b038316600090815260208190526040902054818110156101905760405163391434e360e21b81526001600160a01b038516600482015260248101829052604481018390526064016100f9565b6001600160a01b03841660009081526020819052604090209082900390555b6001600160a01b0382166101cb576002805482900390556101ea565b6001600160a01b03821660009081526020819052604090208054820190555b816001600160a01b0316836001600160a01b03167fddf252ad1be2c89b69c2b068fc378daa952ba7f163c4a11628f55a4df523b3ef8360405161022f91815260200190565b60405180910390a3505050565b60006020828403121561024e57600080fd5b81516001600160a01b038116811461026557600080fd5b9392505050565b634e487b7160e01b600052604160045260246000fd5b600181811c9082168061029657607f821691505b6020821081036102b657634e487b7160e01b600052602260045260246000fd5b50919050565b601f82111561030657806000526020600020601f840160051c810160208510156102e35750805b601f840160051c820191505b8181101561030357600081556001016102ef565b50505b505050565b81516001600160401b038111156103245761032461026c565b610338816103328454610282565b846102bc565b6020601f82116001811461036c57600083156103545750848201515b600019600385901b1c1916600184901b178455610303565b600084815260208120601f198516915b8281101561039c578785015182556020948501946001909201910161037c565b50848210156103ba5786840151600019600387901b60f8161c191681555b50505050600190811b01905550565b808201808211156103ea57634e487b7160e01b600052601160045260246000fd5b92915050565b610775806103ff6000396000f3fe608060405234801561001057600080fd5b50600436106100a95760003560e01c80635f5bec2d116100715780635f5bec2d1461012357806370a082311461014e57806395d89b4114610177578063a9059cbb1461017f578063dd62ed3e14610192578063e28ec4ed146101cb57600080fd5b806306fdde03146100ae578063095ea7b3146100cc57806318160ddd146100ef57806323b872dd14610101578063313ce56714610114575b600080fd5b6100b66101de565b6040516100c391906105be565b60405180910390f35b6100df6100da366004610628565b610270565b60405190151581526020016100c3565b6002545b6040519081526020016100c3565b6100df61010f366004610652565b61028a565b604051601281526020016100c3565b600654610136906001600160a01b031681565b6040516001600160a01b0390911681526020016100c3565b6100f361015c36600461068f565b6001600160a01b031660009081526020819052604090205490565b6100b66102ae565b6100df61018d366004610628565b6102bd565b6100f36101a03660046106b1565b6001600160a01b03918216600090815260016020908152604080832093909416825291909152205490565b600554610136906001600160a01b031681565b6060600380546101ed906106e4565b80601f0160208091040260200160405190810160405280929190818152602001828054610219906106e4565b80156102665780601f1061023b57610100808354040283529160200191610266565b820191906000526020600020905b81548152906001019060200180831161024957829003601f168201915b5050505050905090565b60003361027e8185856102cb565b60019150505b92915050565b6000336102988582856102dd565b6102a3858585610360565b506001949350505050565b6060600480546101ed906106e4565b60003361027e818585610360565b6102d883838360016103bf565b505050565b6001600160a01b03838116600090815260016020908152604080832093861683529290522054600019811461035a578181101561034b57604051637dc7a0d960e11b81526001600160a01b038416600482015260248101829052604481018390526064015b60405180910390fd5b61035a848484840360006103bf565b50505050565b6001600160a01b03831661038a57604051634b637e8f60e11b815260006004820152602401610342565b6001600160a01b0382166103b45760405163ec442f0560e01b815260006004820152602401610342565b6102d8838383610494565b6001600160a01b0384166103e95760405163e602df0560e01b815260006004820152602401610342565b6001600160a01b03831661041357604051634a1406b160e11b815260006004820152602401610342565b6001600160a01b038085166000908152600160209081526040808320938716835292905220829055801561035a57826001600160a01b0316846001600160a01b03167f8c5be1e5ebec7d5bd14f71427d1e84f3dd0314c0f7b2291e5b200ac8c7c3b9258460405161048691815260200190565b60405180910390a350505050565b6001600160a01b0383166104bf5780600260008282546104b4919061071e565b909155506105319050565b6001600160a01b038316600090815260208190526040902054818110156105125760405163391434e360e21b81526001600160a01b03851660048201526024810182905260448101839052606401610342565b6001600160a01b03841660009081526020819052604090209082900390555b6001600160a01b03821661054d5760028054829003905561056c565b6001600160a01b03821660009081526020819052604090208054820190555b816001600160a01b0316836001600160a01b03167fddf252ad1be2c89b69c2b068fc378daa952ba7f163c4a11628f55a4df523b3ef836040516105b191815260200190565b60405180910390a3505050565b602081526000825180602084015260005b818110156105ec57602081860181015160408684010152016105cf565b506000604082850101526040601f19601f83011684010191505092915050565b80356001600160a01b038116811461062357600080fd5b919050565b6000806040838503121561063b57600080fd5b6106448361060c565b946020939093013593505050565b60008060006060848603121561066757600080fd5b6106708461060c565b925061067e6020850161060c565b929592945050506040919091013590565b6000602082840312156106a157600080fd5b6106aa8261060c565b9392505050565b600080604083850312156106c457600080fd5b6106cd8361060c565b91506106db6020840161060c565b90509250929050565b600181811c908216806106f857607f821691505b60208210810361071857634e487b7160e01b600052602260045260246000fd5b50919050565b8082018082111561028457634e487b7160e01b600052601160045260246000fdfea26469706673582212200ddc6624e89a4f004690ab6e91fa55bd9d284c70b4071ba155f5184cc2e55a3864736f6c634300081c0033a264697066735822122027854ce57a64193fe21c9d9e63debbba8ae926d45945e62cfa8bda94439ee31964736f6c634300081c0033608060405234801561001057600080fd5b50604051806040016040528060058152602001640e8dee4c6d60db1b815250604051806040016040528060058152602001640a89ea486960db1b815250816003908161005c91906102a3565b50600461006982826102a3565b50505061008433670de0b6b3a764000061009b60201b60201c565b600580546001600160a01b03191633179055610388565b6001600160a01b0382166100ca5760405163ec442f0560e01b8152600060048201526024015b60405180910390fd5b6100d6600083836100da565b5050565b6001600160a01b0383166101055780600260008282546100fa9190610361565b909155506101779050565b6001600160a01b038316600090815260208190526040902054818110156101585760405163391434e360e21b81526001600160a01b038516600482015260248101829052604481018390526064016100c1565b6001600160a01b03841660009081526020819052604090209082900390555b6001600160a01b038216610193576002805482900390556101b2565b6001600160a01b03821660009081526020819052604090208054820190555b816001600160a01b0316836001600160a01b03167fddf252ad1be2c89b69c2b068fc378daa952ba7f163c4a11628f55a4df523b3ef836040516101f791815260200190565b60405180910390a3505050565b634e487b7160e01b600052604160045260246000fd5b600181811c9082168061022e57607f821691505b60208210810361024e57634e487b7160e01b600052602260045260246000fd5b50919050565b601f82111561029e57806000526020600020601f840160051c8101602085101561027b5750805b601f840160051c820191505b8181101561029b5760008155600101610287565b50505b505050565b81516001600160401b038111156102bc576102bc610204565b6102d0816102ca845461021a565b84610254565b6020601f82116001811461030457600083156102ec5750848201515b600019600385901b1c1916600184901b17845561029b565b600084815260208120601f198516915b828110156103345787850151825560209485019460019092019101610314565b50848210156103525786840151600019600387901b60f8161c191681555b50505050600190811b01905550565b8082018082111561038257634e487b7160e01b600052601160045260246000fd5b92915050565b610757806103976000396000f3fe608060405234801561001057600080fd5b506004361061009e5760003560e01c806370a082311161006657806370a082311461011857806395d89b4114610141578063a9059cbb14610149578063dd62ed3e1461015c578063e28ec4ed1461019557600080fd5b806306fdde03146100a3578063095ea7b3146100c157806318160ddd146100e457806323b872dd146100f6578063313ce56714610109575b600080fd5b6100ab6101c0565b6040516100b891906105a0565b60405180910390f35b6100d46100cf36600461060a565b610252565b60405190151581526020016100b8565b6002545b6040519081526020016100b8565b6100d4610104366004610634565b61026c565b604051601281526020016100b8565b6100e8610126366004610671565b6001600160a01b031660009081526020819052604090205490565b6100ab610290565b6100d461015736600461060a565b61029f565b6100e861016a366004610693565b6001600160a01b03918216600090815260016020908152604080832093909416825291909152205490565b6005546101a8906001600160a01b031681565b6040516001600160a01b0390911681526020016100b8565b6060600380546101cf906106c6565b80601f01602080910402602001604051908101604052809291908181526020018280546101fb906106c6565b80156102485780601f1061021d57610100808354040283529160200191610248565b820191906000526020600020905b81548152906001019060200180831161022b57829003601f168201915b5050505050905090565b6000336102608185856102ad565b60019150505b92915050565b60003361027a8582856102bf565b610285858585610342565b506001949350505050565b6060600480546101cf906106c6565b600033610260818585610342565b6102ba83838360016103a1565b505050565b6001600160a01b03838116600090815260016020908152604080832093861683529290522054600019811461033c578181101561032d57604051637dc7a0d960e11b81526001600160a01b038416600482015260248101829052604481018390526064015b60405180910390fd5b61033c848484840360006103a1565b50505050565b6001600160a01b03831661036c57604051634b637e8f60e11b815260006004820152602401610324565b6001600160a01b0382166103965760405163ec442f0560e01b815260006004820152602401610324565b6102ba838383610476565b6001600160a01b0384166103cb5760405163e602df0560e01b815260006004820152602401610324565b6001600160a01b0383166103f557604051634a1406b160e11b815260006004820152602401610324565b6001600160a01b038085166000908152600160209081526040808320938716835292905220829055801561033c57826001600160a01b0316846001600160a01b03167f8c5be1e5ebec7d5bd14f71427d1e84f3dd0314c0f7b2291e5b200ac8c7c3b9258460405161046891815260200190565b60405180910390a350505050565b6001600160a01b0383166104a15780600260008282546104969190610700565b909155506105139050565b6001600160a01b038316600090815260208190526040902054818110156104f45760405163391434e360e21b81526001600160a01b03851660048201526024810182905260448101839052606401610324565b6001600160a01b03841660009081526020819052604090209082900390555b6001600160a01b03821661052f5760028054829003905561054e565b6001600160a01b03821660009081526020819052604090208054820190555b816001600160a01b0316836001600160a01b03167fddf252ad1be2c89b69c2b068fc378daa952ba7f163c4a11628f55a4df523b3ef8360405161059391815260200190565b60405180910390a3505050565b602081526000825180602084015260005b818110156105ce57602081860181015160408684010152016105b1565b506000604082850101526040601f19601f83011684010191505092915050565b80356001600160a01b038116811461060557600080fd5b919050565b6000806040838503121561061d57600080fd5b610626836105ee565b946020939093013593505050565b60008060006060848603121561064957600080fd5b610652846105ee565b9250610660602085016105ee565b929592945050506040919091013590565b60006020828403121561068357600080fd5b61068c826105ee565b9392505050565b600080604083850312156106a657600080fd5b6106af836105ee565b91506106bd602084016105ee565b90509250929050565b600181811c908216806106da57607f821691505b6020821081036106fa57634e487b7160e01b600052602260045260246000fd5b50919050565b8082018082111561026657634e487b7160e01b600052601160045260246000fdfea26469706673582212208fd11ffedaac0150c4f2c8b2dac4360ecd590eea5d44a989a273fe98fe71f7b164736f6c634300081c0033","linkReferences":{}},"methodIdentifiers":{"PHI()":"66afe4b3","SCALE()":"eced5526","blesToBlesed(address)":"0d0e3d11","blesedToBles(address)":"73a4c0d6","daoMultisig()":"c0d0aa69","factory()":"c45a0155","link()":"1c4695f4","lockupLinear()":"37fb15c0","refill(uint256)":"ca9d07ba","router()":"f887ea40","spark(uint256,address)":"68e368ea","weth()":"3fc8cef3"},"id":0}