{"abi":[{"type":"constructor","inputs":[{"name":"_daoMultisig","type":"address","internalType":"address"},{"name":"_factory","type":"address","internalType":"address"},{"name":"_router","type":"address","internalType":"address"},{"name":"_lockupLinear","type":"address","internalType":"address"},{"name":"_weth","type":"address","internalType":"address"}],"stateMutability":"nonpayable"},{"type":"function","name":"PHI","inputs":[],"outputs":[{"name":"","type":"uint256","internalType":"uint256"}],"stateMutability":"view"},{"type":"function","name":"SCALE","inputs":[],"outputs":[{"name":"","type":"uint256","internalType":"uint256"}],"stateMutability":"view"},{"type":"function","name":"blesToBlesed","inputs":[{"name":"","type":"address","internalType":"address"}],"outputs":[{"name":"","type":"address","internalType":"address"}],"stateMutability":"view"},{"type":"function","name":"blesedToBles","inputs":[{"name":"","type":"address","internalType":"address"}],"outputs":[{"name":"","type":"address","internalType":"address"}],"stateMutability":"view"},{"type":"function","name":"daoMultisig","inputs":[],"outputs":[{"name":"","type":"address","internalType":"address"}],"stateMutability":"view"},{"type":"function","name":"factory","inputs":[],"outputs":[{"name":"","type":"address","internalType":"contract IUniswapV2Factory"}],"stateMutability":"view"},{"type":"function","name":"link","inputs":[],"outputs":[{"name":"","type":"string","internalType":"string"}],"stateMutability":"view"},{"type":"function","name":"lockupLinear","inputs":[],"outputs":[{"name":"","type":"address","internalType":"contract ISablierV2LockupLinear"}],"stateMutability":"view"},{"type":"function","name":"refill","inputs":[{"name":"amount","type":"uint256","internalType":"uint256"}],"outputs":[],"stateMutability":"nonpayable"},{"type":"function","name":"router","inputs":[],"outputs":[{"name":"","type":"address","internalType":"contract IUniswapV2Router02"}],"stateMutability":"view"},{"type":"function","name":"spark","inputs":[{"name":"_division","type":"uint256","internalType":"uint256"},{"name":"_referral","type":"address","internalType":"address"}],"outputs":[],"stateMutability":"payable"},{"type":"function","name":"weth","inputs":[],"outputs":[{"name":"","type":"address","internalType":"contract IERC20"}],"stateMutability":"view"},{"type":"event","name":"Blesed","inputs":[{"name":"blesed","type":"address","indexed":true,"internalType":"address"},{"name":"blesToken","type":"address","indexed":true,"internalType":"address"},{"name":"blesAmount","type":"uint256","indexed":false,"internalType":"uint256"},{"name":"torchAmount","type":"uint256","indexed":false,"internalType":"uint256"},{"name":"liquidity","type":"uint256","indexed":false,"internalType":"uint256"},{"name":"streamId","type":"uint256","indexed":false,"internalType":"uint256"},{"name":"referral","type":"address","indexed":false,"internalType":"address"},{"name":"referralAmount","type":"uint256","indexed":false,"internalType":"uint256"}],"anonymous":false},{"type":"event","name":"Refilled","inputs":[{"name":"refiller","type":"address","indexed":true,"internalType":"address"},{"name":"amount","type":"uint256","indexed":false,"internalType":"uint256"},{"name":"ethAmount","type":"uint256","indexed":false,"internalType":"uint256"}],"anonymous":false},{"type":"error","name":"BlesedAlready","inputs":[]},{"type":"error","name":"DivisionOutOfRange","inputs":[]},{"type":"error","name":"EthAmountError","inputs":[]},{"type":"error","name":"EthAmountOutOfRange","inputs":[]},{"type":"error","name":"Locked","inputs":[]},{"type":"error","name":"NotRefiller","inputs":[]},{"type":"error","name":"TransferFailed","inputs":[]},{"type":"error","name":"ZeroAddress","inputs":[]},{"type":"error","name":"ZeroAmount","inputs":[]}],"bytecode":{"object":"0x60806040526001600555348015610014575f5ffd5b506040516150ce3803806150ce8339818101604052810190610036919061030a565b5f6040516100439061029f565b604051809103905ff08015801561005c573d5f5f3e3d5ffd5b5090508060065f3073ffffffffffffffffffffffffffffffffffffffff1673ffffffffffffffffffffffffffffffffffffffff1681526020019081526020015f205f6101000a81548173ffffffffffffffffffffffffffffffffffffffff021916908373ffffffffffffffffffffffffffffffffffffffff1602179055503060075f8373ffffffffffffffffffffffffffffffffffffffff1673ffffffffffffffffffffffffffffffffffffffff1681526020019081526020015f205f6101000a81548173ffffffffffffffffffffffffffffffffffffffff021916908373ffffffffffffffffffffffffffffffffffffffff1602179055508560025f6101000a81548173ffffffffffffffffffffffffffffffffffffffff021916908373ffffffffffffffffffffffffffffffffffffffff160217905550845f5f6101000a81548173ffffffffffffffffffffffffffffffffffffffff021916908373ffffffffffffffffffffffffffffffffffffffff1602179055508360015f6101000a81548173ffffffffffffffffffffffffffffffffffffffff021916908373ffffffffffffffffffffffffffffffffffffffff1602179055508260045f6101000a81548173ffffffffffffffffffffffffffffffffffffffff021916908373ffffffffffffffffffffffffffffffffffffffff1602179055508160035f6101000a81548173ffffffffffffffffffffffffffffffffffffffff021916908373ffffffffffffffffffffffffffffffffffffffff160217905550505050505050610381565b6115f680613ad883390190565b5f5ffd5b5f73ffffffffffffffffffffffffffffffffffffffff82169050919050565b5f6102d9826102b0565b9050919050565b6102e9816102cf565b81146102f3575f5ffd5b50565b5f81519050610304816102e0565b92915050565b5f5f5f5f5f60a08688031215610323576103226102ac565b5b5f610330888289016102f6565b9550506020610341888289016102f6565b9450506040610352888289016102f6565b9350506060610363888289016102f6565b9250506080610374888289016102f6565b9150509295509295909350565b61374a8061038e5f395ff3fe6080604052600436106100a6575f3560e01c806373a4c0d61161006357806373a4c0d6146101aa578063c0d0aa69146101e6578063c45a015514610210578063ca9d07ba1461023a578063eced552614610262578063f887ea401461028c576100a6565b80630d0e3d11146100aa5780631c4695f4146100e657806337fb15c0146101105780633fc8cef31461013a57806366afe4b31461016457806368e368ea1461018e575b5f5ffd5b3480156100b5575f5ffd5b506100d060048036038101906100cb919061175c565b6102b6565b6040516100dd9190611796565b60405180910390f35b3480156100f1575f5ffd5b506100fa6102e6565b604051610107919061181f565b60405180910390f35b34801561011b575f5ffd5b5061012461031f565b604051610131919061189a565b60405180910390f35b348015610145575f5ffd5b5061014e610344565b60405161015b91906118d3565b60405180910390f35b34801561016f575f5ffd5b50610178610369565b6040516101859190611904565b60405180910390f35b6101a860048036038101906101a39190611947565b61037d565b005b3480156101b5575f5ffd5b506101d060048036038101906101cb919061175c565b61130d565b6040516101dd9190611796565b60405180910390f35b3480156101f1575f5ffd5b506101fa61133d565b6040516102079190611796565b60405180910390f35b34801561021b575f5ffd5b50610224611362565b60405161023191906119a5565b60405180910390f35b348015610245575f5ffd5b50610260600480360381019061025b91906119be565b611386565b005b34801561026d575f5ffd5b50610276611538565b6040516102839190611904565b60405180910390f35b348015610297575f5ffd5b506102a061154b565b6040516102ad9190611a09565b60405180910390f35b6007602052805f5260405f205f915054906101000a900473ffffffffffffffffffffffffffffffffffffffff1681565b6040518060400160405280600f81526020017f426c657365642e6574682e6c696d6f000000000000000000000000000000000081525081565b60045f9054906101000a900473ffffffffffffffffffffffffffffffffffffffff1681565b60035f9054906101000a900473ffffffffffffffffffffffffffffffffffffffff1681565b6f01379f3c1cd9c1b7c1617173ef15e5e681565b6001600554146103b9576040517f0f2e5b6c00000000000000000000000000000000000000000000000000000000815260040160405180910390fd5b60026005819055505f73ffffffffffffffffffffffffffffffffffffffff1660065f3373ffffffffffffffffffffffffffffffffffffffff1673ffffffffffffffffffffffffffffffffffffffff1681526020019081526020015f205f9054906101000a900473ffffffffffffffffffffffffffffffffffffffff1673ffffffffffffffffffffffffffffffffffffffff1614610482576040517fcb4fce7400000000000000000000000000000000000000000000000000000000815260040160405180910390fd5b61048a611579565b82816101400181815250508181610160019073ffffffffffffffffffffffffffffffffffffffff16908173ffffffffffffffffffffffffffffffffffffffff168152505060065f3073ffffffffffffffffffffffffffffffffffffffff1673ffffffffffffffffffffffffffffffffffffffff1681526020019081526020015f205f9054906101000a900473ffffffffffffffffffffffffffffffffffffffff16815f019073ffffffffffffffffffffffffffffffffffffffff16908173ffffffffffffffffffffffffffffffffffffffff1681525050600b816101400151106105a0576040517fac4dff4400000000000000000000000000000000000000000000000000000000815260040160405180910390fd5b6230d400341115806105bc57506906c6b935b8bbd40000003410155b156105f3576040517f4ba2c1a700000000000000000000000000000000000000000000000000000000815260040160405180910390fd5b5f33604051610601906115fa565b61060b9190611796565b604051809103905ff080158015610624573d5f5f3e3d5ffd5b5090508060065f3373ffffffffffffffffffffffffffffffffffffffff1673ffffffffffffffffffffffffffffffffffffffff1681526020019081526020015f205f6101000a81548173ffffffffffffffffffffffffffffffffffffffff021916908373ffffffffffffffffffffffffffffffffffffffff1602179055503360075f8373ffffffffffffffffffffffffffffffffffffffff1673ffffffffffffffffffffffffffffffffffffffff1681526020019081526020015f205f6101000a81548173ffffffffffffffffffffffffffffffffffffffff021916908373ffffffffffffffffffffffffffffffffffffffff160217905550670de0b6b3a76400008260200181815250505f82610140015103610895578073ffffffffffffffffffffffffffffffffffffffff1663a9059cbb3384602001516040518363ffffffff1660e01b815260040161077a929190611a22565b6020604051808303815f875af1158015610796573d5f5f3e3d5ffd5b505050506040513d601f19601f820116820180604052508101906107ba9190611a7e565b5060065f3373ffffffffffffffffffffffffffffffffffffffff1673ffffffffffffffffffffffffffffffffffffffff1681526020019081526020015f205f9054906101000a900473ffffffffffffffffffffffffffffffffffffffff1673ffffffffffffffffffffffffffffffffffffffff163373ffffffffffffffffffffffffffffffffffffffff167e96f680fe632bbd21a9a2a622b4f232c480d207a348a7cb9ec68432a7cd3ee784602001515f5f5f8861016001515f60405161088696959493929190611ae2565b60405180910390a35050611301565b61089d611607565b6230d400836101400151346108b29190611b6e565b6108bc9190611bdc565b8360400181815250506127106051346108d59190611b6e565b6108df9190611bdc565b83610100018181525050826101000151346108fa9190611c0c565b8360600181815250505f5f90505b836101400151811015610965576f01379f3c1cd9c1b7c1617173ef15e5e66ec097ce7bc90715b34b9f100000000085602001516109459190611b6e565b61094f9190611bdc565b8460200181815250508080600101915050610908565b508260200151670de0b6b3a764000061097e9190611c0c565b8360a00181815250508173ffffffffffffffffffffffffffffffffffffffff1663095ea7b360015f9054906101000a900473ffffffffffffffffffffffffffffffffffffffff168560a001516040518363ffffffff1660e01b81526004016109e7929190611a22565b6020604051808303815f875af1158015610a03573d5f5f3e3d5ffd5b505050506040513d601f19601f82011682018060405250810190610a279190611a7e565b5060015f9054906101000a900473ffffffffffffffffffffffffffffffffffffffff1673ffffffffffffffffffffffffffffffffffffffff1663f305d719846060015160065f3373ffffffffffffffffffffffffffffffffffffffff1673ffffffffffffffffffffffffffffffffffffffff1681526020019081526020015f205f9054906101000a900473ffffffffffffffffffffffffffffffffffffffff168660a001518760a00151886060015130426040518863ffffffff1660e01b8152600401610af996959493929190611c3f565b60606040518083038185885af1158015610b15573d5f5f3e3d5ffd5b50505050506040513d601f19601f82011682018060405250810190610b3a9190611cb2565b90915090508360800181815250505f5f5f9054906101000a900473ffffffffffffffffffffffffffffffffffffffff1673ffffffffffffffffffffffffffffffffffffffff1663e6a439058460035f9054906101000a900473ffffffffffffffffffffffffffffffffffffffff166040518363ffffffff1660e01b8152600401610bc5929190611d02565b602060405180830381865afa158015610be0573d5f5f3e3d5ffd5b505050506040513d601f19601f82011682018060405250810190610c049190611d3d565b905033825f019073ffffffffffffffffffffffffffffffffffffffff16908173ffffffffffffffffffffffffffffffffffffffff168152505033826020019073ffffffffffffffffffffffffffffffffffffffff16908173ffffffffffffffffffffffffffffffffffffffff1681525050836080015182604001906fffffffffffffffffffffffffffffffff1690816fffffffffffffffffffffffffffffffff168152505080826060019073ffffffffffffffffffffffffffffffffffffffff16908173ffffffffffffffffffffffffffffffffffffffff16815250505f8260800190151590811515815250505f8260a001901515908115158152505060405180604001604052805f64ffffffffff16815260200163337f980064ffffffffff168152508260c0018190525060405180604001604052805f73ffffffffffffffffffffffffffffffffffffffff168152602001610d605f611570565b8152508260e001819052508073ffffffffffffffffffffffffffffffffffffffff1663095ea7b360045f9054906101000a900473ffffffffffffffffffffffffffffffffffffffff1686608001516040518363ffffffff1660e01b8152600401610dcb929190611a22565b6020604051808303815f875af1158015610de7573d5f5f3e3d5ffd5b505050506040513d601f19601f82011682018060405250810190610e0b9190611a7e565b5060045f9054906101000a900473ffffffffffffffffffffffffffffffffffffffff1673ffffffffffffffffffffffffffffffffffffffff1663ab167ccc836040518263ffffffff1660e01b8152600401610e669190611f09565b6020604051808303815f875af1158015610e82573d5f5f3e3d5ffd5b505050506040513d601f19601f82011682018060405250810190610ea69190611f23565b846101200181815250508273ffffffffffffffffffffffffffffffffffffffff1663a9059cbb3386602001516040518363ffffffff1660e01b8152600401610eef929190611a22565b6020604051808303815f875af1158015610f0b573d5f5f3e3d5ffd5b505050506040513d601f19601f82011682018060405250810190610f2f9190611a7e565b506f01379f3c1cd9c1b7c1617173ef15e5e66ec097ce7bc90715b34b9f10000000008560400151610f609190611b6e565b610f6a9190611bdc565b8460c00181815250506f01379f3c1cd9c1b7c1617173ef15e5e66ec097ce7bc90715b34b9f10000000008560c00151610fa39190611b6e565b610fad9190611bdc565b8460e00181815250508360e001518460c001518560400151610fcf9190611f4e565b610fd99190611f4e565b845f015173ffffffffffffffffffffffffffffffffffffffff166370a08231306040518263ffffffff1660e01b81526004016110159190611796565b602060405180830381865afa158015611030573d5f5f3e3d5ffd5b505050506040513d601f19601f820116820180604052508101906110549190611f23565b1061120d57835f015173ffffffffffffffffffffffffffffffffffffffff1663a9059cbb3386604001516040518363ffffffff1660e01b815260040161109b929190611a22565b6020604051808303815f875af11580156110b7573d5f5f3e3d5ffd5b505050506040513d601f19601f820116820180604052508101906110db9190611a7e565b50835f015173ffffffffffffffffffffffffffffffffffffffff1663a9059cbb60025f9054906101000a900473ffffffffffffffffffffffffffffffffffffffff168660c001516040518363ffffffff1660e01b815260040161113f929190611a22565b6020604051808303815f875af115801561115b573d5f5f3e3d5ffd5b505050506040513d601f19601f8201168201806040525081019061117f9190611a7e565b50835f015173ffffffffffffffffffffffffffffffffffffffff1663a9059cbb8561016001518660e001516040518363ffffffff1660e01b81526004016111c7929190611a22565b6020604051808303815f875af11580156111e3573d5f5f3e3d5ffd5b505050506040513d601f19601f820116820180604052508101906112079190611a7e565b50611218565b5f8460400181815250505b60065f3373ffffffffffffffffffffffffffffffffffffffff1673ffffffffffffffffffffffffffffffffffffffff1681526020019081526020015f205f9054906101000a900473ffffffffffffffffffffffffffffffffffffffff1673ffffffffffffffffffffffffffffffffffffffff163373ffffffffffffffffffffffffffffffffffffffff167e96f680fe632bbd21a9a2a622b4f232c480d207a348a7cb9ec68432a7cd3ee78660200151876040015188608001518961012001518a61016001518b60e001516040516112f496959493929190611f81565b60405180910390a3505050505b60016005819055505050565b6006602052805f5260405f205f915054906101000a900473ffffffffffffffffffffffffffffffffffffffff1681565b60025f9054906101000a900473ffffffffffffffffffffffffffffffffffffffff1681565b5f5f9054906101000a900473ffffffffffffffffffffffffffffffffffffffff1681565b5f81036113bf576040517f1f2a200500000000000000000000000000000000000000000000000000000000815260040160405180910390fd5b5f60065f3073ffffffffffffffffffffffffffffffffffffffff1673ffffffffffffffffffffffffffffffffffffffff1681526020019081526020015f205f9054906101000a900473ffffffffffffffffffffffffffffffffffffffff1673ffffffffffffffffffffffffffffffffffffffff166323b872dd3330856040518463ffffffff1660e01b815260040161145993929190611fe0565b6020604051808303815f875af1158015611475573d5f5f3e3d5ffd5b505050506040513d601f19601f820116820180604052508101906114999190611a7e565b9050806114d2576040517f90b8ec1800000000000000000000000000000000000000000000000000000000815260040160405180910390fd5b3373ffffffffffffffffffffffffffffffffffffffff166108fc670de0b6b3a764000084476115019190611b6e565b61150b9190611bdc565b90811502906040515f60405180830381858888f19350505050158015611533573d5f5f3e3d5ffd5b505050565b6ec097ce7bc90715b34b9f100000000081565b60015f9054906101000a900473ffffffffffffffffffffffffffffffffffffffff1681565b5f819050919050565b6040518061018001604052805f73ffffffffffffffffffffffffffffffffffffffff1681526020015f81526020015f81526020015f81526020015f81526020015f81526020015f81526020015f81526020015f81526020015f81526020015f81526020015f73ffffffffffffffffffffffffffffffffffffffff1681525090565b6116ff8061201683390190565b6040518061010001604052805f73ffffffffffffffffffffffffffffffffffffffff1681526020015f73ffffffffffffffffffffffffffffffffffffffff1681526020015f6fffffffffffffffffffffffffffffffff1681526020015f73ffffffffffffffffffffffffffffffffffffffff1681526020015f151581526020015f151581526020016116976116aa565b81526020016116a46116d0565b81525090565b60405180604001604052805f64ffffffffff1681526020015f64ffffffffff1681525090565b60405180604001604052805f73ffffffffffffffffffffffffffffffffffffffff1681526020015f81525090565b5f5ffd5b5f73ffffffffffffffffffffffffffffffffffffffff82169050919050565b5f61172b82611702565b9050919050565b61173b81611721565b8114611745575f5ffd5b50565b5f8135905061175681611732565b92915050565b5f60208284031215611771576117706116fe565b5b5f61177e84828501611748565b91505092915050565b61179081611721565b82525050565b5f6020820190506117a95f830184611787565b92915050565b5f81519050919050565b5f82825260208201905092915050565b8281835e5f83830152505050565b5f601f19601f8301169050919050565b5f6117f1826117af565b6117fb81856117b9565b935061180b8185602086016117c9565b611814816117d7565b840191505092915050565b5f6020820190508181035f83015261183781846117e7565b905092915050565b5f819050919050565b5f61186261185d61185884611702565b61183f565b611702565b9050919050565b5f61187382611848565b9050919050565b5f61188482611869565b9050919050565b6118948161187a565b82525050565b5f6020820190506118ad5f83018461188b565b92915050565b5f6118bd82611869565b9050919050565b6118cd816118b3565b82525050565b5f6020820190506118e65f8301846118c4565b92915050565b5f819050919050565b6118fe816118ec565b82525050565b5f6020820190506119175f8301846118f5565b92915050565b611926816118ec565b8114611930575f5ffd5b50565b5f813590506119418161191d565b92915050565b5f5f6040838503121561195d5761195c6116fe565b5b5f61196a85828601611933565b925050602061197b85828601611748565b9150509250929050565b5f61198f82611869565b9050919050565b61199f81611985565b82525050565b5f6020820190506119b85f830184611996565b92915050565b5f602082840312156119d3576119d26116fe565b5b5f6119e084828501611933565b91505092915050565b5f6119f382611869565b9050919050565b611a03816119e9565b82525050565b5f602082019050611a1c5f8301846119fa565b92915050565b5f604082019050611a355f830185611787565b611a4260208301846118f5565b9392505050565b5f8115159050919050565b611a5d81611a49565b8114611a67575f5ffd5b50565b5f81519050611a7881611a54565b92915050565b5f60208284031215611a9357611a926116fe565b5b5f611aa084828501611a6a565b91505092915050565b5f819050919050565b5f611acc611ac7611ac284611aa9565b61183f565b6118ec565b9050919050565b611adc81611ab2565b82525050565b5f60c082019050611af55f8301896118f5565b611b026020830188611ad3565b611b0f6040830187611ad3565b611b1c6060830186611ad3565b611b296080830185611787565b611b3660a0830184611ad3565b979650505050505050565b7f4e487b71000000000000000000000000000000000000000000000000000000005f52601160045260245ffd5b5f611b78826118ec565b9150611b83836118ec565b9250828202611b91816118ec565b91508282048414831517611ba857611ba7611b41565b5b5092915050565b7f4e487b71000000000000000000000000000000000000000000000000000000005f52601260045260245ffd5b5f611be6826118ec565b9150611bf1836118ec565b925082611c0157611c00611baf565b5b828204905092915050565b5f611c16826118ec565b9150611c21836118ec565b9250828203905081811115611c3957611c38611b41565b5b92915050565b5f60c082019050611c525f830189611787565b611c5f60208301886118f5565b611c6c60408301876118f5565b611c7960608301866118f5565b611c866080830185611787565b611c9360a08301846118f5565b979650505050505050565b5f81519050611cac8161191d565b92915050565b5f5f5f60608486031215611cc957611cc86116fe565b5b5f611cd686828701611c9e565b9350506020611ce786828701611c9e565b9250506040611cf886828701611c9e565b9150509250925092565b5f604082019050611d155f830185611787565b611d226020830184611787565b9392505050565b5f81519050611d3781611732565b92915050565b5f60208284031215611d5257611d516116fe565b5b5f611d5f84828501611d29565b91505092915050565b611d7181611721565b82525050565b5f6fffffffffffffffffffffffffffffffff82169050919050565b611d9b81611d77565b82525050565b611daa816118b3565b82525050565b611db981611a49565b82525050565b5f64ffffffffff82169050919050565b611dd881611dbf565b82525050565b604082015f820151611df25f850182611dcf565b506020820151611e056020850182611dcf565b50505050565b5f611e25611e20611e1b846118ec565b61183f565b6118ec565b9050919050565b611e3581611e0b565b82525050565b604082015f820151611e4f5f850182611d68565b506020820151611e626020850182611e2c565b50505050565b61014082015f820151611e7d5f850182611d68565b506020820151611e906020850182611d68565b506040820151611ea36040850182611d92565b506060820151611eb66060850182611da1565b506080820151611ec96080850182611db0565b5060a0820151611edc60a0850182611db0565b5060c0820151611eef60c0850182611dde565b5060e0820151611f03610100850182611e3b565b50505050565b5f61014082019050611f1d5f830184611e68565b92915050565b5f60208284031215611f3857611f376116fe565b5b5f611f4584828501611c9e565b91505092915050565b5f611f58826118ec565b9150611f63836118ec565b9250828201905080821115611f7b57611f7a611b41565b5b92915050565b5f60c082019050611f945f8301896118f5565b611fa160208301886118f5565b611fae60408301876118f5565b611fbb60608301866118f5565b611fc86080830185611787565b611fd560a08301846118f5565b979650505050505050565b5f606082019050611ff35f830186611787565b6120006020830185611787565b61200d60408301846118f5565b94935050505056fe608060405234801561000f575f5ffd5b506040516116ff3803806116ff83398181016040528101906100319190610459565b6040518060400160405280600481526020017f626c6573000000000000000000000000000000000000000000000000000000008152506040518060400160405280600481526020017f424c45530000000000000000000000000000000000000000000000000000000081525081600390816100ac91906106c1565b5080600490816100bc91906106c1565b5050506100d733670de0b6b3a764000061015d60201b60201c565b3360055f6101000a81548173ffffffffffffffffffffffffffffffffffffffff021916908373ffffffffffffffffffffffffffffffffffffffff1602179055508060065f6101000a81548173ffffffffffffffffffffffffffffffffffffffff021916908373ffffffffffffffffffffffffffffffffffffffff16021790555050610875565b5f73ffffffffffffffffffffffffffffffffffffffff168273ffffffffffffffffffffffffffffffffffffffff16036101cd575f6040517fec442f050000000000000000000000000000000000000000000000000000000081526004016101c4919061079f565b60405180910390fd5b6101de5f83836101e260201b60201c565b5050565b5f73ffffffffffffffffffffffffffffffffffffffff168373ffffffffffffffffffffffffffffffffffffffff1603610232578060025f82825461022691906107e5565b92505081905550610300565b5f5f5f8573ffffffffffffffffffffffffffffffffffffffff1673ffffffffffffffffffffffffffffffffffffffff1681526020019081526020015f20549050818110156102bb578381836040517fe450d38c0000000000000000000000000000000000000000000000000000000081526004016102b293929190610827565b60405180910390fd5b8181035f5f8673ffffffffffffffffffffffffffffffffffffffff1673ffffffffffffffffffffffffffffffffffffffff1681526020019081526020015f2081905550505b5f73ffffffffffffffffffffffffffffffffffffffff168273ffffffffffffffffffffffffffffffffffffffff1603610347578060025f8282540392505081905550610391565b805f5f8473ffffffffffffffffffffffffffffffffffffffff1673ffffffffffffffffffffffffffffffffffffffff1681526020019081526020015f205f82825401925050819055505b8173ffffffffffffffffffffffffffffffffffffffff168373ffffffffffffffffffffffffffffffffffffffff167fddf252ad1be2c89b69c2b068fc378daa952ba7f163c4a11628f55a4df523b3ef836040516103ee919061085c565b60405180910390a3505050565b5f5ffd5b5f73ffffffffffffffffffffffffffffffffffffffff82169050919050565b5f610428826103ff565b9050919050565b6104388161041e565b8114610442575f5ffd5b50565b5f815190506104538161042f565b92915050565b5f6020828403121561046e5761046d6103fb565b5b5f61047b84828501610445565b91505092915050565b5f81519050919050565b7f4e487b71000000000000000000000000000000000000000000000000000000005f52604160045260245ffd5b7f4e487b71000000000000000000000000000000000000000000000000000000005f52602260045260245ffd5b5f60028204905060018216806104ff57607f821691505b602082108103610512576105116104bb565b5b50919050565b5f819050815f5260205f209050919050565b5f6020601f8301049050919050565b5f82821b905092915050565b5f600883026105747fffffffffffffffffffffffffffffffffffffffffffffffffffffffffffffffff82610539565b61057e8683610539565b95508019841693508086168417925050509392505050565b5f819050919050565b5f819050919050565b5f6105c26105bd6105b884610596565b61059f565b610596565b9050919050565b5f819050919050565b6105db836105a8565b6105ef6105e7826105c9565b848454610545565b825550505050565b5f5f905090565b6106066105f7565b6106118184846105d2565b505050565b5b81811015610634576106295f826105fe565b600181019050610617565b5050565b601f8211156106795761064a81610518565b6106538461052a565b81016020851015610662578190505b61067661066e8561052a565b830182610616565b50505b505050565b5f82821c905092915050565b5f6106995f198460080261067e565b1980831691505092915050565b5f6106b1838361068a565b9150826002028217905092915050565b6106ca82610484565b67ffffffffffffffff8111156106e3576106e261048e565b5b6106ed82546104e8565b6106f8828285610638565b5f60209050601f831160018114610729575f8415610717578287015190505b61072185826106a6565b865550610788565b601f19841661073786610518565b5f5b8281101561075e57848901518255600182019150602085019450602081019050610739565b8683101561077b5784890151610777601f89168261068a565b8355505b6001600288020188555050505b505050505050565b6107998161041e565b82525050565b5f6020820190506107b25f830184610790565b92915050565b7f4e487b71000000000000000000000000000000000000000000000000000000005f52601160045260245ffd5b5f6107ef82610596565b91506107fa83610596565b9250828201905080821115610812576108116107b8565b5b92915050565b61082181610596565b82525050565b5f60608201905061083a5f830186610790565b6108476020830185610818565b6108546040830184610818565b949350505050565b5f60208201905061086f5f830184610818565b92915050565b610e7d806108825f395ff3fe608060405234801561000f575f5ffd5b50600436106100a7575f3560e01c80635f5bec2d1161006f5780635f5bec2d1461016557806370a082311461018357806395d89b41146101b3578063a9059cbb146101d1578063dd62ed3e14610201578063e28ec4ed14610231576100a7565b806306fdde03146100ab578063095ea7b3146100c957806318160ddd146100f957806323b872dd14610117578063313ce56714610147575b5f5ffd5b6100b361024f565b6040516100c09190610af6565b60405180910390f35b6100e360048036038101906100de9190610ba7565b6102df565b6040516100f09190610bff565b60405180910390f35b610101610301565b60405161010e9190610c27565b60405180910390f35b610131600480360381019061012c9190610c40565b61030a565b60405161013e9190610bff565b60405180910390f35b61014f610338565b60405161015c9190610cab565b60405180910390f35b61016d610340565b60405161017a9190610cd3565b60405180910390f35b61019d60048036038101906101989190610cec565b610365565b6040516101aa9190610c27565b60405180910390f35b6101bb6103aa565b6040516101c89190610af6565b60405180910390f35b6101eb60048036038101906101e69190610ba7565b61043a565b6040516101f89190610bff565b60405180910390f35b61021b60048036038101906102169190610d17565b61045c565b6040516102289190610c27565b60405180910390f35b6102396104de565b6040516102469190610cd3565b60405180910390f35b60606003805461025e90610d82565b80601f016020809104026020016040519081016040528092919081815260200182805461028a90610d82565b80156102d55780601f106102ac576101008083540402835291602001916102d5565b820191905f5260205f20905b8154815290600101906020018083116102b857829003601f168201915b5050505050905090565b5f5f6102e9610503565b90506102f681858561050a565b600191505092915050565b5f600254905090565b5f5f610314610503565b905061032185828561051c565b61032c8585856105ae565b60019150509392505050565b5f6012905090565b60065f9054906101000a900473ffffffffffffffffffffffffffffffffffffffff1681565b5f5f5f8373ffffffffffffffffffffffffffffffffffffffff1673ffffffffffffffffffffffffffffffffffffffff1681526020019081526020015f20549050919050565b6060600480546103b990610d82565b80601f01602080910402602001604051908101604052809291908181526020018280546103e590610d82565b80156104305780601f1061040757610100808354040283529160200191610430565b820191905f5260205f20905b81548152906001019060200180831161041357829003601f168201915b5050505050905090565b5f5f610444610503565b90506104518185856105ae565b600191505092915050565b5f60015f8473ffffffffffffffffffffffffffffffffffffffff1673ffffffffffffffffffffffffffffffffffffffff1681526020019081526020015f205f8373ffffffffffffffffffffffffffffffffffffffff1673ffffffffffffffffffffffffffffffffffffffff1681526020019081526020015f2054905092915050565b60055f9054906101000a900473ffffffffffffffffffffffffffffffffffffffff1681565b5f33905090565b610517838383600161069e565b505050565b5f610527848461045c565b90507fffffffffffffffffffffffffffffffffffffffffffffffffffffffffffffffff81146105a85781811015610599578281836040517ffb8f41b200000000000000000000000000000000000000000000000000000000815260040161059093929190610db2565b60405180910390fd5b6105a784848484035f61069e565b5b50505050565b5f73ffffffffffffffffffffffffffffffffffffffff168373ffffffffffffffffffffffffffffffffffffffff160361061e575f6040517f96c6fd1e0000000000000000000000000000000000000000000000000000000081526004016106159190610cd3565b60405180910390fd5b5f73ffffffffffffffffffffffffffffffffffffffff168273ffffffffffffffffffffffffffffffffffffffff160361068e575f6040517fec442f050000000000000000000000000000000000000000000000000000000081526004016106859190610cd3565b60405180910390fd5b61069983838361086d565b505050565b5f73ffffffffffffffffffffffffffffffffffffffff168473ffffffffffffffffffffffffffffffffffffffff160361070e575f6040517fe602df050000000000000000000000000000000000000000000000000000000081526004016107059190610cd3565b60405180910390fd5b5f73ffffffffffffffffffffffffffffffffffffffff168373ffffffffffffffffffffffffffffffffffffffff160361077e575f6040517f94280d620000000000000000000000000000000000000000000000000000000081526004016107759190610cd3565b60405180910390fd5b8160015f8673ffffffffffffffffffffffffffffffffffffffff1673ffffffffffffffffffffffffffffffffffffffff1681526020019081526020015f205f8573ffffffffffffffffffffffffffffffffffffffff1673ffffffffffffffffffffffffffffffffffffffff1681526020019081526020015f20819055508015610867578273ffffffffffffffffffffffffffffffffffffffff168473ffffffffffffffffffffffffffffffffffffffff167f8c5be1e5ebec7d5bd14f71427d1e84f3dd0314c0f7b2291e5b200ac8c7c3b9258460405161085e9190610c27565b60405180910390a35b50505050565b5f73ffffffffffffffffffffffffffffffffffffffff168373ffffffffffffffffffffffffffffffffffffffff16036108bd578060025f8282546108b19190610e14565b9250508190555061098b565b5f5f5f8573ffffffffffffffffffffffffffffffffffffffff1673ffffffffffffffffffffffffffffffffffffffff1681526020019081526020015f2054905081811015610946578381836040517fe450d38c00000000000000000000000000000000000000000000000000000000815260040161093d93929190610db2565b60405180910390fd5b8181035f5f8673ffffffffffffffffffffffffffffffffffffffff1673ffffffffffffffffffffffffffffffffffffffff1681526020019081526020015f2081905550505b5f73ffffffffffffffffffffffffffffffffffffffff168273ffffffffffffffffffffffffffffffffffffffff16036109d2578060025f8282540392505081905550610a1c565b805f5f8473ffffffffffffffffffffffffffffffffffffffff1673ffffffffffffffffffffffffffffffffffffffff1681526020019081526020015f205f82825401925050819055505b8173ffffffffffffffffffffffffffffffffffffffff168373ffffffffffffffffffffffffffffffffffffffff167fddf252ad1be2c89b69c2b068fc378daa952ba7f163c4a11628f55a4df523b3ef83604051610a799190610c27565b60405180910390a3505050565b5f81519050919050565b5f82825260208201905092915050565b8281835e5f83830152505050565b5f601f19601f8301169050919050565b5f610ac882610a86565b610ad28185610a90565b9350610ae2818560208601610aa0565b610aeb81610aae565b840191505092915050565b5f6020820190508181035f830152610b0e8184610abe565b905092915050565b5f5ffd5b5f73ffffffffffffffffffffffffffffffffffffffff82169050919050565b5f610b4382610b1a565b9050919050565b610b5381610b39565b8114610b5d575f5ffd5b50565b5f81359050610b6e81610b4a565b92915050565b5f819050919050565b610b8681610b74565b8114610b90575f5ffd5b50565b5f81359050610ba181610b7d565b92915050565b5f5f60408385031215610bbd57610bbc610b16565b5b5f610bca85828601610b60565b9250506020610bdb85828601610b93565b9150509250929050565b5f8115159050919050565b610bf981610be5565b82525050565b5f602082019050610c125f830184610bf0565b92915050565b610c2181610b74565b82525050565b5f602082019050610c3a5f830184610c18565b92915050565b5f5f5f60608486031215610c5757610c56610b16565b5b5f610c6486828701610b60565b9350506020610c7586828701610b60565b9250506040610c8686828701610b93565b9150509250925092565b5f60ff82169050919050565b610ca581610c90565b82525050565b5f602082019050610cbe5f830184610c9c565b92915050565b610ccd81610b39565b82525050565b5f602082019050610ce65f830184610cc4565b92915050565b5f60208284031215610d0157610d00610b16565b5b5f610d0e84828501610b60565b91505092915050565b5f5f60408385031215610d2d57610d2c610b16565b5b5f610d3a85828601610b60565b9250506020610d4b85828601610b60565b9150509250929050565b7f4e487b71000000000000000000000000000000000000000000000000000000005f52602260045260245ffd5b5f6002820490506001821680610d9957607f821691505b602082108103610dac57610dab610d55565b5b50919050565b5f606082019050610dc55f830186610cc4565b610dd26020830185610c18565b610ddf6040830184610c18565b949350505050565b7f4e487b71000000000000000000000000000000000000000000000000000000005f52601160045260245ffd5b5f610e1e82610b74565b9150610e2983610b74565b9250828201905080821115610e4157610e40610de7565b5b9291505056fea26469706673582212208b46b6a93db51fae00f59372b9908e9f2b767e8fc3067883fe40c0e814c9d12064736f6c634300081c0033a26469706673582212205e2a52bee71a5c33ae55ba16d041f161f4f67de1c12239c26e8d5474dad52afc64736f6c634300081c0033608060405234801561000f575f5ffd5b506040518060400160405280600581526020017f746f7263680000000000000000000000000000000000000000000000000000008152506040518060400160405280600581526020017f544f524348000000000000000000000000000000000000000000000000000000815250816003908161008b91906105d6565b50806004908161009b91906105d6565b5050506100b633670de0b6b3a76400006100fb60201b60201c565b3360055f6101000a81548173ffffffffffffffffffffffffffffffffffffffff021916908373ffffffffffffffffffffffffffffffffffffffff1602179055506107ba565b5f73ffffffffffffffffffffffffffffffffffffffff168273ffffffffffffffffffffffffffffffffffffffff160361016b575f6040517fec442f0500000000000000000000000000000000000000000000000000000000815260040161016291906106e4565b60405180910390fd5b61017c5f838361018060201b60201c565b5050565b5f73ffffffffffffffffffffffffffffffffffffffff168373ffffffffffffffffffffffffffffffffffffffff16036101d0578060025f8282546101c4919061072a565b9250508190555061029e565b5f5f5f8573ffffffffffffffffffffffffffffffffffffffff1673ffffffffffffffffffffffffffffffffffffffff1681526020019081526020015f2054905081811015610259578381836040517fe450d38c0000000000000000000000000000000000000000000000000000000081526004016102509392919061076c565b60405180910390fd5b8181035f5f8673ffffffffffffffffffffffffffffffffffffffff1673ffffffffffffffffffffffffffffffffffffffff1681526020019081526020015f2081905550505b5f73ffffffffffffffffffffffffffffffffffffffff168273ffffffffffffffffffffffffffffffffffffffff16036102e5578060025f828254039250508190555061032f565b805f5f8473ffffffffffffffffffffffffffffffffffffffff1673ffffffffffffffffffffffffffffffffffffffff1681526020019081526020015f205f82825401925050819055505b8173ffffffffffffffffffffffffffffffffffffffff168373ffffffffffffffffffffffffffffffffffffffff167fddf252ad1be2c89b69c2b068fc378daa952ba7f163c4a11628f55a4df523b3ef8360405161038c91906107a1565b60405180910390a3505050565b5f81519050919050565b7f4e487b71000000000000000000000000000000000000000000000000000000005f52604160045260245ffd5b7f4e487b71000000000000000000000000000000000000000000000000000000005f52602260045260245ffd5b5f600282049050600182168061041457607f821691505b602082108103610427576104266103d0565b5b50919050565b5f819050815f5260205f209050919050565b5f6020601f8301049050919050565b5f82821b905092915050565b5f600883026104897fffffffffffffffffffffffffffffffffffffffffffffffffffffffffffffffff8261044e565b610493868361044e565b95508019841693508086168417925050509392505050565b5f819050919050565b5f819050919050565b5f6104d76104d26104cd846104ab565b6104b4565b6104ab565b9050919050565b5f819050919050565b6104f0836104bd565b6105046104fc826104de565b84845461045a565b825550505050565b5f5f905090565b61051b61050c565b6105268184846104e7565b505050565b5b818110156105495761053e5f82610513565b60018101905061052c565b5050565b601f82111561058e5761055f8161042d565b6105688461043f565b81016020851015610577578190505b61058b6105838561043f565b83018261052b565b50505b505050565b5f82821c905092915050565b5f6105ae5f1984600802610593565b1980831691505092915050565b5f6105c6838361059f565b9150826002028217905092915050565b6105df82610399565b67ffffffffffffffff8111156105f8576105f76103a3565b5b61060282546103fd565b61060d82828561054d565b5f60209050601f83116001811461063e575f841561062c578287015190505b61063685826105bb565b86555061069d565b601f19841661064c8661042d565b5f5b828110156106735784890151825560018201915060208501945060208101905061064e565b86831015610690578489015161068c601f89168261059f565b8355505b6001600288020188555050505b505050505050565b5f73ffffffffffffffffffffffffffffffffffffffff82169050919050565b5f6106ce826106a5565b9050919050565b6106de816106c4565b82525050565b5f6020820190506106f75f8301846106d5565b92915050565b7f4e487b71000000000000000000000000000000000000000000000000000000005f52601160045260245ffd5b5f610734826104ab565b915061073f836104ab565b9250828201905080821115610757576107566106fd565b5b92915050565b610766816104ab565b82525050565b5f60608201905061077f5f8301866106d5565b61078c602083018561075d565b610799604083018461075d565b949350505050565b5f6020820190506107b45f83018461075d565b92915050565b610e2f806107c75f395ff3fe608060405234801561000f575f5ffd5b506004361061009c575f3560e01c806370a082311161006457806370a082311461015a57806395d89b411461018a578063a9059cbb146101a8578063dd62ed3e146101d8578063e28ec4ed146102085761009c565b806306fdde03146100a0578063095ea7b3146100be57806318160ddd146100ee57806323b872dd1461010c578063313ce5671461013c575b5f5ffd5b6100a8610226565b6040516100b59190610aa8565b60405180910390f35b6100d860048036038101906100d39190610b59565b6102b6565b6040516100e59190610bb1565b60405180910390f35b6100f66102d8565b6040516101039190610bd9565b60405180910390f35b61012660048036038101906101219190610bf2565b6102e1565b6040516101339190610bb1565b60405180910390f35b61014461030f565b6040516101519190610c5d565b60405180910390f35b610174600480360381019061016f9190610c76565b610317565b6040516101819190610bd9565b60405180910390f35b61019261035c565b60405161019f9190610aa8565b60405180910390f35b6101c260048036038101906101bd9190610b59565b6103ec565b6040516101cf9190610bb1565b60405180910390f35b6101f260048036038101906101ed9190610ca1565b61040e565b6040516101ff9190610bd9565b60405180910390f35b610210610490565b60405161021d9190610cee565b60405180910390f35b60606003805461023590610d34565b80601f016020809104026020016040519081016040528092919081815260200182805461026190610d34565b80156102ac5780601f10610283576101008083540402835291602001916102ac565b820191905f5260205f20905b81548152906001019060200180831161028f57829003601f168201915b5050505050905090565b5f5f6102c06104b5565b90506102cd8185856104bc565b600191505092915050565b5f600254905090565b5f5f6102eb6104b5565b90506102f88582856104ce565b610303858585610560565b60019150509392505050565b5f6012905090565b5f5f5f8373ffffffffffffffffffffffffffffffffffffffff1673ffffffffffffffffffffffffffffffffffffffff1681526020019081526020015f20549050919050565b60606004805461036b90610d34565b80601f016020809104026020016040519081016040528092919081815260200182805461039790610d34565b80156103e25780601f106103b9576101008083540402835291602001916103e2565b820191905f5260205f20905b8154815290600101906020018083116103c557829003601f168201915b5050505050905090565b5f5f6103f66104b5565b9050610403818585610560565b600191505092915050565b5f60015f8473ffffffffffffffffffffffffffffffffffffffff1673ffffffffffffffffffffffffffffffffffffffff1681526020019081526020015f205f8373ffffffffffffffffffffffffffffffffffffffff1673ffffffffffffffffffffffffffffffffffffffff1681526020019081526020015f2054905092915050565b60055f9054906101000a900473ffffffffffffffffffffffffffffffffffffffff1681565b5f33905090565b6104c98383836001610650565b505050565b5f6104d9848461040e565b90507fffffffffffffffffffffffffffffffffffffffffffffffffffffffffffffffff811461055a578181101561054b578281836040517ffb8f41b200000000000000000000000000000000000000000000000000000000815260040161054293929190610d64565b60405180910390fd5b61055984848484035f610650565b5b50505050565b5f73ffffffffffffffffffffffffffffffffffffffff168373ffffffffffffffffffffffffffffffffffffffff16036105d0575f6040517f96c6fd1e0000000000000000000000000000000000000000000000000000000081526004016105c79190610cee565b60405180910390fd5b5f73ffffffffffffffffffffffffffffffffffffffff168273ffffffffffffffffffffffffffffffffffffffff1603610640575f6040517fec442f050000000000000000000000000000000000000000000000000000000081526004016106379190610cee565b60405180910390fd5b61064b83838361081f565b505050565b5f73ffffffffffffffffffffffffffffffffffffffff168473ffffffffffffffffffffffffffffffffffffffff16036106c0575f6040517fe602df050000000000000000000000000000000000000000000000000000000081526004016106b79190610cee565b60405180910390fd5b5f73ffffffffffffffffffffffffffffffffffffffff168373ffffffffffffffffffffffffffffffffffffffff1603610730575f6040517f94280d620000000000000000000000000000000000000000000000000000000081526004016107279190610cee565b60405180910390fd5b8160015f8673ffffffffffffffffffffffffffffffffffffffff1673ffffffffffffffffffffffffffffffffffffffff1681526020019081526020015f205f8573ffffffffffffffffffffffffffffffffffffffff1673ffffffffffffffffffffffffffffffffffffffff1681526020019081526020015f20819055508015610819578273ffffffffffffffffffffffffffffffffffffffff168473ffffffffffffffffffffffffffffffffffffffff167f8c5be1e5ebec7d5bd14f71427d1e84f3dd0314c0f7b2291e5b200ac8c7c3b925846040516108109190610bd9565b60405180910390a35b50505050565b5f73ffffffffffffffffffffffffffffffffffffffff168373ffffffffffffffffffffffffffffffffffffffff160361086f578060025f8282546108639190610dc6565b9250508190555061093d565b5f5f5f8573ffffffffffffffffffffffffffffffffffffffff1673ffffffffffffffffffffffffffffffffffffffff1681526020019081526020015f20549050818110156108f8578381836040517fe450d38c0000000000000000000000000000000000000000000000000000000081526004016108ef93929190610d64565b60405180910390fd5b8181035f5f8673ffffffffffffffffffffffffffffffffffffffff1673ffffffffffffffffffffffffffffffffffffffff1681526020019081526020015f2081905550505b5f73ffffffffffffffffffffffffffffffffffffffff168273ffffffffffffffffffffffffffffffffffffffff1603610984578060025f82825403925050819055506109ce565b805f5f8473ffffffffffffffffffffffffffffffffffffffff1673ffffffffffffffffffffffffffffffffffffffff1681526020019081526020015f205f82825401925050819055505b8173ffffffffffffffffffffffffffffffffffffffff168373ffffffffffffffffffffffffffffffffffffffff167fddf252ad1be2c89b69c2b068fc378daa952ba7f163c4a11628f55a4df523b3ef83604051610a2b9190610bd9565b60405180910390a3505050565b5f81519050919050565b5f82825260208201905092915050565b8281835e5f83830152505050565b5f601f19601f8301169050919050565b5f610a7a82610a38565b610a848185610a42565b9350610a94818560208601610a52565b610a9d81610a60565b840191505092915050565b5f6020820190508181035f830152610ac08184610a70565b905092915050565b5f5ffd5b5f73ffffffffffffffffffffffffffffffffffffffff82169050919050565b5f610af582610acc565b9050919050565b610b0581610aeb565b8114610b0f575f5ffd5b50565b5f81359050610b2081610afc565b92915050565b5f819050919050565b610b3881610b26565b8114610b42575f5ffd5b50565b5f81359050610b5381610b2f565b92915050565b5f5f60408385031215610b6f57610b6e610ac8565b5b5f610b7c85828601610b12565b9250506020610b8d85828601610b45565b9150509250929050565b5f8115159050919050565b610bab81610b97565b82525050565b5f602082019050610bc45f830184610ba2565b92915050565b610bd381610b26565b82525050565b5f602082019050610bec5f830184610bca565b92915050565b5f5f5f60608486031215610c0957610c08610ac8565b5b5f610c1686828701610b12565b9350506020610c2786828701610b12565b9250506040610c3886828701610b45565b9150509250925092565b5f60ff82169050919050565b610c5781610c42565b82525050565b5f602082019050610c705f830184610c4e565b92915050565b5f60208284031215610c8b57610c8a610ac8565b5b5f610c9884828501610b12565b91505092915050565b5f5f60408385031215610cb757610cb6610ac8565b5b5f610cc485828601610b12565b9250506020610cd585828601610b12565b9150509250929050565b610ce881610aeb565b82525050565b5f602082019050610d015f830184610cdf565b92915050565b7f4e487b71000000000000000000000000000000000000000000000000000000005f52602260045260245ffd5b5f6002820490506001821680610d4b57607f821691505b602082108103610d5e57610d5d610d07565b5b50919050565b5f606082019050610d775f830186610cdf565b610d846020830185610bca565b610d916040830184610bca565b949350505050565b7f4e487b71000000000000000000000000000000000000000000000000000000005f52601160045260245ffd5b5f610dd082610b26565b9150610ddb83610b26565b9250828201905080821115610df357610df2610d99565b5b9291505056fea2646970667358221220d1f37dc8834c25b01a1c07fbaba3b4cd7c6a7819665a6a34ad6afa74520990a864736f6c634300081c0033","linkReferences":{}},"methodIdentifiers":{"PHI()":"66afe4b3","SCALE()":"eced5526","blesToBlesed(address)":"0d0e3d11","blesedToBles(address)":"73a4c0d6","daoMultisig()":"c0d0aa69","factory()":"c45a0155","link()":"1c4695f4","lockupLinear()":"37fb15c0","refill(uint256)":"ca9d07ba","router()":"f887ea40","spark(uint256,address)":"68e368ea","weth()":"3fc8cef3"},"id":77}