{"abi":[{"type":"constructor","inputs":[],"stateMutability":"nonpayable"},{"type":"function","name":"allowance","inputs":[{"name":"owner","type":"address","internalType":"address"},{"name":"spender","type":"address","internalType":"address"}],"outputs":[{"name":"","type":"uint256","internalType":"uint256"}],"stateMutability":"view"},{"type":"function","name":"altar","inputs":[],"outputs":[{"name":"","type":"address","internalType":"address"}],"stateMutability":"view"},{"type":"function","name":"approve","inputs":[{"name":"spender","type":"address","internalType":"address"},{"name":"value","type":"uint256","internalType":"uint256"}],"outputs":[{"name":"","type":"bool","internalType":"bool"}],"stateMutability":"nonpayable"},{"type":"function","name":"balanceOf","inputs":[{"name":"account","type":"address","internalType":"address"}],"outputs":[{"name":"","type":"uint256","internalType":"uint256"}],"stateMutability":"view"},{"type":"function","name":"decimals","inputs":[],"outputs":[{"name":"","type":"uint8","internalType":"uint8"}],"stateMutability":"view"},{"type":"function","name":"name","inputs":[],"outputs":[{"name":"","type":"string","internalType":"string"}],"stateMutability":"view"},{"type":"function","name":"symbol","inputs":[],"outputs":[{"name":"","type":"string","internalType":"string"}],"stateMutability":"view"},{"type":"function","name":"totalSupply","inputs":[],"outputs":[{"name":"","type":"uint256","internalType":"uint256"}],"stateMutability":"view"},{"type":"function","name":"transfer","inputs":[{"name":"to","type":"address","internalType":"address"},{"name":"value","type":"uint256","internalType":"uint256"}],"outputs":[{"name":"","type":"bool","internalType":"bool"}],"stateMutability":"nonpayable"},{"type":"function","name":"transferFrom","inputs":[{"name":"from","type":"address","internalType":"address"},{"name":"to","type":"address","internalType":"address"},{"name":"value","type":"uint256","internalType":"uint256"}],"outputs":[{"name":"","type":"bool","internalType":"bool"}],"stateMutability":"nonpayable"},{"type":"event","name":"Approval","inputs":[{"name":"owner","type":"address","indexed":true,"internalType":"address"},{"name":"spender","type":"address","indexed":true,"internalType":"address"},{"name":"value","type":"uint256","indexed":false,"internalType":"uint256"}],"anonymous":false},{"type":"event","name":"Transfer","inputs":[{"name":"from","type":"address","indexed":true,"internalType":"address"},{"name":"to","type":"address","indexed":true,"internalType":"address"},{"name":"value","type":"uint256","indexed":false,"internalType":"uint256"}],"anonymous":false},{"type":"error","name":"ERC20InsufficientAllowance","inputs":[{"name":"spender","type":"address","internalType":"address"},{"name":"allowance","type":"uint256","internalType":"uint256"},{"name":"needed","type":"uint256","internalType":"uint256"}]},{"type":"error","name":"ERC20InsufficientBalance","inputs":[{"name":"sender","type":"address","internalType":"address"},{"name":"balance","type":"uint256","internalType":"uint256"},{"name":"needed","type":"uint256","internalType":"uint256"}]},{"type":"error","name":"ERC20InvalidApprover","inputs":[{"name":"approver","type":"address","internalType":"address"}]},{"type":"error","name":"ERC20InvalidReceiver","inputs":[{"name":"receiver","type":"address","internalType":"address"}]},{"type":"error","name":"ERC20InvalidSender","inputs":[{"name":"sender","type":"address","internalType":"address"}]},{"type":"error","name":"ERC20InvalidSpender","inputs":[{"name":"spender","type":"address","internalType":"address"}]}],"bytecode":{"object":"0x608060405234801561000f575f5ffd5b506040518060400160405280600581526020017f746f7263680000000000000000000000000000000000000000000000000000008152506040518060400160405280600581526020017f544f524348000000000000000000000000000000000000000000000000000000815250816003908161008b91906105d6565b50806004908161009b91906105d6565b5050506100b633670de0b6b3a76400006100fb60201b60201c565b3360055f6101000a81548173ffffffffffffffffffffffffffffffffffffffff021916908373ffffffffffffffffffffffffffffffffffffffff1602179055506107ba565b5f73ffffffffffffffffffffffffffffffffffffffff168273ffffffffffffffffffffffffffffffffffffffff160361016b575f6040517fec442f0500000000000000000000000000000000000000000000000000000000815260040161016291906106e4565b60405180910390fd5b61017c5f838361018060201b60201c565b5050565b5f73ffffffffffffffffffffffffffffffffffffffff168373ffffffffffffffffffffffffffffffffffffffff16036101d0578060025f8282546101c4919061072a565b9250508190555061029e565b5f5f5f8573ffffffffffffffffffffffffffffffffffffffff1673ffffffffffffffffffffffffffffffffffffffff1681526020019081526020015f2054905081811015610259578381836040517fe450d38c0000000000000000000000000000000000000000000000000000000081526004016102509392919061076c565b60405180910390fd5b8181035f5f8673ffffffffffffffffffffffffffffffffffffffff1673ffffffffffffffffffffffffffffffffffffffff1681526020019081526020015f2081905550505b5f73ffffffffffffffffffffffffffffffffffffffff168273ffffffffffffffffffffffffffffffffffffffff16036102e5578060025f828254039250508190555061032f565b805f5f8473ffffffffffffffffffffffffffffffffffffffff1673ffffffffffffffffffffffffffffffffffffffff1681526020019081526020015f205f82825401925050819055505b8173ffffffffffffffffffffffffffffffffffffffff168373ffffffffffffffffffffffffffffffffffffffff167fddf252ad1be2c89b69c2b068fc378daa952ba7f163c4a11628f55a4df523b3ef8360405161038c91906107a1565b60405180910390a3505050565b5f81519050919050565b7f4e487b71000000000000000000000000000000000000000000000000000000005f52604160045260245ffd5b7f4e487b71000000000000000000000000000000000000000000000000000000005f52602260045260245ffd5b5f600282049050600182168061041457607f821691505b602082108103610427576104266103d0565b5b50919050565b5f819050815f5260205f209050919050565b5f6020601f8301049050919050565b5f82821b905092915050565b5f600883026104897fffffffffffffffffffffffffffffffffffffffffffffffffffffffffffffffff8261044e565b610493868361044e565b95508019841693508086168417925050509392505050565b5f819050919050565b5f819050919050565b5f6104d76104d26104cd846104ab565b6104b4565b6104ab565b9050919050565b5f819050919050565b6104f0836104bd565b6105046104fc826104de565b84845461045a565b825550505050565b5f5f905090565b61051b61050c565b6105268184846104e7565b505050565b5b818110156105495761053e5f82610513565b60018101905061052c565b5050565b601f82111561058e5761055f8161042d565b6105688461043f565b81016020851015610577578190505b61058b6105838561043f565b83018261052b565b50505b505050565b5f82821c905092915050565b5f6105ae5f1984600802610593565b1980831691505092915050565b5f6105c6838361059f565b9150826002028217905092915050565b6105df82610399565b67ffffffffffffffff8111156105f8576105f76103a3565b5b61060282546103fd565b61060d82828561054d565b5f60209050601f83116001811461063e575f841561062c578287015190505b61063685826105bb565b86555061069d565b601f19841661064c8661042d565b5f5b828110156106735784890151825560018201915060208501945060208101905061064e565b86831015610690578489015161068c601f89168261059f565b8355505b6001600288020188555050505b505050505050565b5f73ffffffffffffffffffffffffffffffffffffffff82169050919050565b5f6106ce826106a5565b9050919050565b6106de816106c4565b82525050565b5f6020820190506106f75f8301846106d5565b92915050565b7f4e487b71000000000000000000000000000000000000000000000000000000005f52601160045260245ffd5b5f610734826104ab565b915061073f836104ab565b9250828201905080821115610757576107566106fd565b5b92915050565b610766816104ab565b82525050565b5f60608201905061077f5f8301866106d5565b61078c602083018561075d565b610799604083018461075d565b949350505050565b5f6020820190506107b45f83018461075d565b92915050565b610e2f806107c75f395ff3fe608060405234801561000f575f5ffd5b506004361061009c575f3560e01c806370a082311161006457806370a082311461015a57806395d89b411461018a578063a9059cbb146101a8578063dd62ed3e146101d8578063e28ec4ed146102085761009c565b806306fdde03146100a0578063095ea7b3146100be57806318160ddd146100ee57806323b872dd1461010c578063313ce5671461013c575b5f5ffd5b6100a8610226565b6040516100b59190610aa8565b60405180910390f35b6100d860048036038101906100d39190610b59565b6102b6565b6040516100e59190610bb1565b60405180910390f35b6100f66102d8565b6040516101039190610bd9565b60405180910390f35b61012660048036038101906101219190610bf2565b6102e1565b6040516101339190610bb1565b60405180910390f35b61014461030f565b6040516101519190610c5d565b60405180910390f35b610174600480360381019061016f9190610c76565b610317565b6040516101819190610bd9565b60405180910390f35b61019261035c565b60405161019f9190610aa8565b60405180910390f35b6101c260048036038101906101bd9190610b59565b6103ec565b6040516101cf9190610bb1565b60405180910390f35b6101f260048036038101906101ed9190610ca1565b61040e565b6040516101ff9190610bd9565b60405180910390f35b610210610490565b60405161021d9190610cee565b60405180910390f35b60606003805461023590610d34565b80601f016020809104026020016040519081016040528092919081815260200182805461026190610d34565b80156102ac5780601f10610283576101008083540402835291602001916102ac565b820191905f5260205f20905b81548152906001019060200180831161028f57829003601f168201915b5050505050905090565b5f5f6102c06104b5565b90506102cd8185856104bc565b600191505092915050565b5f600254905090565b5f5f6102eb6104b5565b90506102f88582856104ce565b610303858585610560565b60019150509392505050565b5f6012905090565b5f5f5f8373ffffffffffffffffffffffffffffffffffffffff1673ffffffffffffffffffffffffffffffffffffffff1681526020019081526020015f20549050919050565b60606004805461036b90610d34565b80601f016020809104026020016040519081016040528092919081815260200182805461039790610d34565b80156103e25780601f106103b9576101008083540402835291602001916103e2565b820191905f5260205f20905b8154815290600101906020018083116103c557829003601f168201915b5050505050905090565b5f5f6103f66104b5565b9050610403818585610560565b600191505092915050565b5f60015f8473ffffffffffffffffffffffffffffffffffffffff1673ffffffffffffffffffffffffffffffffffffffff1681526020019081526020015f205f8373ffffffffffffffffffffffffffffffffffffffff1673ffffffffffffffffffffffffffffffffffffffff1681526020019081526020015f2054905092915050565b60055f9054906101000a900473ffffffffffffffffffffffffffffffffffffffff1681565b5f33905090565b6104c98383836001610650565b505050565b5f6104d9848461040e565b90507fffffffffffffffffffffffffffffffffffffffffffffffffffffffffffffffff811461055a578181101561054b578281836040517ffb8f41b200000000000000000000000000000000000000000000000000000000815260040161054293929190610d64565b60405180910390fd5b61055984848484035f610650565b5b50505050565b5f73ffffffffffffffffffffffffffffffffffffffff168373ffffffffffffffffffffffffffffffffffffffff16036105d0575f6040517f96c6fd1e0000000000000000000000000000000000000000000000000000000081526004016105c79190610cee565b60405180910390fd5b5f73ffffffffffffffffffffffffffffffffffffffff168273ffffffffffffffffffffffffffffffffffffffff1603610640575f6040517fec442f050000000000000000000000000000000000000000000000000000000081526004016106379190610cee565b60405180910390fd5b61064b83838361081f565b505050565b5f73ffffffffffffffffffffffffffffffffffffffff168473ffffffffffffffffffffffffffffffffffffffff16036106c0575f6040517fe602df050000000000000000000000000000000000000000000000000000000081526004016106b79190610cee565b60405180910390fd5b5f73ffffffffffffffffffffffffffffffffffffffff168373ffffffffffffffffffffffffffffffffffffffff1603610730575f6040517f94280d620000000000000000000000000000000000000000000000000000000081526004016107279190610cee565b60405180910390fd5b8160015f8673ffffffffffffffffffffffffffffffffffffffff1673ffffffffffffffffffffffffffffffffffffffff1681526020019081526020015f205f8573ffffffffffffffffffffffffffffffffffffffff1673ffffffffffffffffffffffffffffffffffffffff1681526020019081526020015f20819055508015610819578273ffffffffffffffffffffffffffffffffffffffff168473ffffffffffffffffffffffffffffffffffffffff167f8c5be1e5ebec7d5bd14f71427d1e84f3dd0314c0f7b2291e5b200ac8c7c3b925846040516108109190610bd9565b60405180910390a35b50505050565b5f73ffffffffffffffffffffffffffffffffffffffff168373ffffffffffffffffffffffffffffffffffffffff160361086f578060025f8282546108639190610dc6565b9250508190555061093d565b5f5f5f8573ffffffffffffffffffffffffffffffffffffffff1673ffffffffffffffffffffffffffffffffffffffff1681526020019081526020015f20549050818110156108f8578381836040517fe450d38c0000000000000000000000000000000000000000000000000000000081526004016108ef93929190610d64565b60405180910390fd5b8181035f5f8673ffffffffffffffffffffffffffffffffffffffff1673ffffffffffffffffffffffffffffffffffffffff1681526020019081526020015f2081905550505b5f73ffffffffffffffffffffffffffffffffffffffff168273ffffffffffffffffffffffffffffffffffffffff1603610984578060025f82825403925050819055506109ce565b805f5f8473ffffffffffffffffffffffffffffffffffffffff1673ffffffffffffffffffffffffffffffffffffffff1681526020019081526020015f205f82825401925050819055505b8173ffffffffffffffffffffffffffffffffffffffff168373ffffffffffffffffffffffffffffffffffffffff167fddf252ad1be2c89b69c2b068fc378daa952ba7f163c4a11628f55a4df523b3ef83604051610a2b9190610bd9565b60405180910390a3505050565b5f81519050919050565b5f82825260208201905092915050565b8281835e5f83830152505050565b5f601f19601f8301169050919050565b5f610a7a82610a38565b610a848185610a42565b9350610a94818560208601610a52565b610a9d81610a60565b840191505092915050565b5f6020820190508181035f830152610ac08184610a70565b905092915050565b5f5ffd5b5f73ffffffffffffffffffffffffffffffffffffffff82169050919050565b5f610af582610acc565b9050919050565b610b0581610aeb565b8114610b0f575f5ffd5b50565b5f81359050610b2081610afc565b92915050565b5f819050919050565b610b3881610b26565b8114610b42575f5ffd5b50565b5f81359050610b5381610b2f565b92915050565b5f5f60408385031215610b6f57610b6e610ac8565b5b5f610b7c85828601610b12565b9250506020610b8d85828601610b45565b9150509250929050565b5f8115159050919050565b610bab81610b97565b82525050565b5f602082019050610bc45f830184610ba2565b92915050565b610bd381610b26565b82525050565b5f602082019050610bec5f830184610bca565b92915050565b5f5f5f60608486031215610c0957610c08610ac8565b5b5f610c1686828701610b12565b9350506020610c2786828701610b12565b9250506040610c3886828701610b45565b9150509250925092565b5f60ff82169050919050565b610c5781610c42565b82525050565b5f602082019050610c705f830184610c4e565b92915050565b5f60208284031215610c8b57610c8a610ac8565b5b5f610c9884828501610b12565b91505092915050565b5f5f60408385031215610cb757610cb6610ac8565b5b5f610cc485828601610b12565b9250506020610cd585828601610b12565b9150509250929050565b610ce881610aeb565b82525050565b5f602082019050610d015f830184610cdf565b92915050565b7f4e487b71000000000000000000000000000000000000000000000000000000005f52602260045260245ffd5b5f6002820490506001821680610d4b57607f821691505b602082108103610d5e57610d5d610d07565b5b50919050565b5f606082019050610d775f830186610cdf565b610d846020830185610bca565b610d916040830184610bca565b949350505050565b7f4e487b71000000000000000000000000000000000000000000000000000000005f52601160045260245ffd5b5f610dd082610b26565b9150610ddb83610b26565b9250828201905080821115610df357610df2610d99565b5b9291505056fea2646970667358221220d1f37dc8834c25b01a1c07fbaba3b4cd7c6a7819665a6a34ad6afa74520990a864736f6c634300081c0033","linkReferences":{}},"methodIdentifiers":{"allowance(address,address)":"dd62ed3e","altar()":"e28ec4ed","approve(address,uint256)":"095ea7b3","balanceOf(address)":"70a08231","decimals()":"313ce567","name()":"06fdde03","symbol()":"95d89b41","totalSupply()":"18160ddd","transfer(address,uint256)":"a9059cbb","transferFrom(address,address,uint256)":"23b872dd"},"id":77}