{"abi":[{"type":"constructor","inputs":[],"stateMutability":"nonpayable"},{"type":"function","name":"allowance","inputs":[{"name":"owner","type":"address","internalType":"address"},{"name":"spender","type":"address","internalType":"address"}],"outputs":[{"name":"","type":"uint256","internalType":"uint256"}],"stateMutability":"view"},{"type":"function","name":"altar","inputs":[],"outputs":[{"name":"","type":"address","internalType":"address"}],"stateMutability":"view"},{"type":"function","name":"approve","inputs":[{"name":"spender","type":"address","internalType":"address"},{"name":"value","type":"uint256","internalType":"uint256"}],"outputs":[{"name":"","type":"bool","internalType":"bool"}],"stateMutability":"nonpayable"},{"type":"function","name":"balanceOf","inputs":[{"name":"account","type":"address","internalType":"address"}],"outputs":[{"name":"","type":"uint256","internalType":"uint256"}],"stateMutability":"view"},{"type":"function","name":"decimals","inputs":[],"outputs":[{"name":"","type":"uint8","internalType":"uint8"}],"stateMutability":"view"},{"type":"function","name":"name","inputs":[],"outputs":[{"name":"","type":"string","internalType":"string"}],"stateMutability":"view"},{"type":"function","name":"symbol","inputs":[],"outputs":[{"name":"","type":"string","internalType":"string"}],"stateMutability":"view"},{"type":"function","name":"totalSupply","inputs":[],"outputs":[{"name":"","type":"uint256","internalType":"uint256"}],"stateMutability":"view"},{"type":"function","name":"transfer","inputs":[{"name":"to","type":"address","internalType":"address"},{"name":"value","type":"uint256","internalType":"uint256"}],"outputs":[{"name":"","type":"bool","internalType":"bool"}],"stateMutability":"nonpayable"},{"type":"function","name":"transferFrom","inputs":[{"name":"from","type":"address","internalType":"address"},{"name":"to","type":"address","internalType":"address"},{"name":"value","type":"uint256","internalType":"uint256"}],"outputs":[{"name":"","type":"bool","internalType":"bool"}],"stateMutability":"nonpayable"},{"type":"event","name":"Approval","inputs":[{"name":"owner","type":"address","indexed":true,"internalType":"address"},{"name":"spender","type":"address","indexed":true,"internalType":"address"},{"name":"value","type":"uint256","indexed":false,"internalType":"uint256"}],"anonymous":false},{"type":"event","name":"Transfer","inputs":[{"name":"from","type":"address","indexed":true,"internalType":"address"},{"name":"to","type":"address","indexed":true,"internalType":"address"},{"name":"value","type":"uint256","indexed":false,"internalType":"uint256"}],"anonymous":false},{"type":"error","name":"ERC20InsufficientAllowance","inputs":[{"name":"spender","type":"address","internalType":"address"},{"name":"allowance","type":"uint256","internalType":"uint256"},{"name":"needed","type":"uint256","internalType":"uint256"}]},{"type":"error","name":"ERC20InsufficientBalance","inputs":[{"name":"sender","type":"address","internalType":"address"},{"name":"balance","type":"uint256","internalType":"uint256"},{"name":"needed","type":"uint256","internalType":"uint256"}]},{"type":"error","name":"ERC20InvalidApprover","inputs":[{"name":"approver","type":"address","internalType":"address"}]},{"type":"error","name":"ERC20InvalidReceiver","inputs":[{"name":"receiver","type":"address","internalType":"address"}]},{"type":"error","name":"ERC20InvalidSender","inputs":[{"name":"sender","type":"address","internalType":"address"}]},{"type":"error","name":"ERC20InvalidSpender","inputs":[{"name":"spender","type":"address","internalType":"address"}]}],"bytecode":{"object":"0x608060405234801561001057600080fd5b50604051806040016040528060058152602001640e8dee4c6d60db1b815250604051806040016040528060058152602001640a89ea486960db1b815250816003908161005c91906102a3565b50600461006982826102a3565b50505061008433670de0b6b3a764000061009b60201b60201c565b600580546001600160a01b03191633179055610388565b6001600160a01b0382166100ca5760405163ec442f0560e01b8152600060048201526024015b60405180910390fd5b6100d6600083836100da565b5050565b6001600160a01b0383166101055780600260008282546100fa9190610361565b909155506101779050565b6001600160a01b038316600090815260208190526040902054818110156101585760405163391434e360e21b81526001600160a01b038516600482015260248101829052604481018390526064016100c1565b6001600160a01b03841660009081526020819052604090209082900390555b6001600160a01b038216610193576002805482900390556101b2565b6001600160a01b03821660009081526020819052604090208054820190555b816001600160a01b0316836001600160a01b03167fddf252ad1be2c89b69c2b068fc378daa952ba7f163c4a11628f55a4df523b3ef836040516101f791815260200190565b60405180910390a3505050565b634e487b7160e01b600052604160045260246000fd5b600181811c9082168061022e57607f821691505b60208210810361024e57634e487b7160e01b600052602260045260246000fd5b50919050565b601f82111561029e57806000526020600020601f840160051c8101602085101561027b5750805b601f840160051c820191505b8181101561029b5760008155600101610287565b50505b505050565b81516001600160401b038111156102bc576102bc610204565b6102d0816102ca845461021a565b84610254565b6020601f82116001811461030457600083156102ec5750848201515b600019600385901b1c1916600184901b17845561029b565b600084815260208120601f198516915b828110156103345787850151825560209485019460019092019101610314565b50848210156103525786840151600019600387901b60f8161c191681555b50505050600190811b01905550565b8082018082111561038257634e487b7160e01b600052601160045260246000fd5b92915050565b610757806103976000396000f3fe608060405234801561001057600080fd5b506004361061009e5760003560e01c806370a082311161006657806370a082311461011857806395d89b4114610141578063a9059cbb14610149578063dd62ed3e1461015c578063e28ec4ed1461019557600080fd5b806306fdde03146100a3578063095ea7b3146100c157806318160ddd146100e457806323b872dd146100f6578063313ce56714610109575b600080fd5b6100ab6101c0565b6040516100b891906105a0565b60405180910390f35b6100d46100cf36600461060a565b610252565b60405190151581526020016100b8565b6002545b6040519081526020016100b8565b6100d4610104366004610634565b61026c565b604051601281526020016100b8565b6100e8610126366004610671565b6001600160a01b031660009081526020819052604090205490565b6100ab610290565b6100d461015736600461060a565b61029f565b6100e861016a366004610693565b6001600160a01b03918216600090815260016020908152604080832093909416825291909152205490565b6005546101a8906001600160a01b031681565b6040516001600160a01b0390911681526020016100b8565b6060600380546101cf906106c6565b80601f01602080910402602001604051908101604052809291908181526020018280546101fb906106c6565b80156102485780601f1061021d57610100808354040283529160200191610248565b820191906000526020600020905b81548152906001019060200180831161022b57829003601f168201915b5050505050905090565b6000336102608185856102ad565b60019150505b92915050565b60003361027a8582856102bf565b610285858585610342565b506001949350505050565b6060600480546101cf906106c6565b600033610260818585610342565b6102ba83838360016103a1565b505050565b6001600160a01b03838116600090815260016020908152604080832093861683529290522054600019811461033c578181101561032d57604051637dc7a0d960e11b81526001600160a01b038416600482015260248101829052604481018390526064015b60405180910390fd5b61033c848484840360006103a1565b50505050565b6001600160a01b03831661036c57604051634b637e8f60e11b815260006004820152602401610324565b6001600160a01b0382166103965760405163ec442f0560e01b815260006004820152602401610324565b6102ba838383610476565b6001600160a01b0384166103cb5760405163e602df0560e01b815260006004820152602401610324565b6001600160a01b0383166103f557604051634a1406b160e11b815260006004820152602401610324565b6001600160a01b038085166000908152600160209081526040808320938716835292905220829055801561033c57826001600160a01b0316846001600160a01b03167f8c5be1e5ebec7d5bd14f71427d1e84f3dd0314c0f7b2291e5b200ac8c7c3b9258460405161046891815260200190565b60405180910390a350505050565b6001600160a01b0383166104a15780600260008282546104969190610700565b909155506105139050565b6001600160a01b038316600090815260208190526040902054818110156104f45760405163391434e360e21b81526001600160a01b03851660048201526024810182905260448101839052606401610324565b6001600160a01b03841660009081526020819052604090209082900390555b6001600160a01b03821661052f5760028054829003905561054e565b6001600160a01b03821660009081526020819052604090208054820190555b816001600160a01b0316836001600160a01b03167fddf252ad1be2c89b69c2b068fc378daa952ba7f163c4a11628f55a4df523b3ef8360405161059391815260200190565b60405180910390a3505050565b602081526000825180602084015260005b818110156105ce57602081860181015160408684010152016105b1565b506000604082850101526040601f19601f83011684010191505092915050565b80356001600160a01b038116811461060557600080fd5b919050565b6000806040838503121561061d57600080fd5b610626836105ee565b946020939093013593505050565b60008060006060848603121561064957600080fd5b610652846105ee565b9250610660602085016105ee565b929592945050506040919091013590565b60006020828403121561068357600080fd5b61068c826105ee565b9392505050565b600080604083850312156106a657600080fd5b6106af836105ee565b91506106bd602084016105ee565b90509250929050565b600181811c908216806106da57607f821691505b6020821081036106fa57634e487b7160e01b600052602260045260246000fd5b50919050565b8082018082111561026657634e487b7160e01b600052601160045260246000fdfea26469706673582212208fd11ffedaac0150c4f2c8b2dac4360ecd590eea5d44a989a273fe98fe71f7b164736f6c634300081c0033","linkReferences":{}},"methodIdentifiers":{"allowance(address,address)":"dd62ed3e","altar()":"e28ec4ed","approve(address,uint256)":"095ea7b3","balanceOf(address)":"70a08231","decimals()":"313ce567","name()":"06fdde03","symbol()":"95d89b41","totalSupply()":"18160ddd","transfer(address,uint256)":"a9059cbb","transferFrom(address,address,uint256)":"23b872dd"},"id":0}